:040000000DEF00F010
:0400080084EF0CF085
:06001800FF00CDEF0DF02A
:1015000000000000000000000000000000000000DB
:1015100000000000000000000000000000000000CB
:101520000000000000000054657374320A0D005082
:101530005348320A0042544E3100546573740050CF
:101540005348000026EC0EF076EC0EF0AC0E116E57
:101550001C0E126E71EC0EF0D68E3A0E156E150E34
:10156000166E1FEC0DF0270E2A6E150E2B6EF7EC83
:101570000DF0C092020E2F6EE70E2E6E000EE82EBA
:10158000FED72E2EFCD72F2EFAD700D0000E346EA9
:10159000000E336E000E326ED0BED1EF0AF0D3EFE4
:1015A0000AF0F1EF0AF03350D8A4D9EF0AF0DBEFDC
:1015B0000AF0F1EF0AF03250D8B4E1EF0AF0E4EFAC
:1015C0000AF0010EE5EF0AF0000E326E010E336EE6
:1015D000D0AEEDEF0AF0EFEF0AF0E8EF0AF002EF1D
:1015E0000BF0D0AEF6EF0AF0F8EF0AF002EF0BF0D6
:1015F0003304D8A4FEEF0AF000EF0BF002EF0BF07B
:10160000000E336E3250D8B408EF0BF00AEF0BF037
:1016100034EF0BF0000E316E000E306EC092A30E50
:101620002E6E550EE82EFED72E2EFCD700F0C0826F
:10163000A30E2E6E550EE82EFED72E2EFCD700F0F0
:10164000304A312A31BE2EEF0BF0315009E1050E40
:10165000305CD8A02EEF0BF030EF0BF00EEF0BF05C
:1016600079EC0EF0CCEF0AF0D0B039EF0BF03BEF95
:101670000BF054EF0BF03450D8A441EF0BF043EFD4
:101680000BF054EF0BF0010E346E3F0E156E150E7D
:10169000166E1FEC0DF02F0E2A6E150E2B6EF7EC4A
:1016A0000DF0C09265EF0BF0D0A059EF0BF05BEF9F
:1016B0000BF065EF0BF03404D8A461EF0BF063EF8F
:1016C0000BF065EF0BF0000E346E3450D8A46BEFC6
:1016D0000BF06DEF0BF0CCEF0AF0C082CCEF0AF00C
:1016E0000DEF00F0610078F4D9F461007CF4DAF4D5
:1016F000DEC4F6F4DDC4F7F4F86A0800F550250AF4
:10170000D8A485EF0BF087EF0BF0D7EF0BF061005B
:1017100078F4D9F461007CF4DAF4DE2A000EDD22DC
:10172000000E386E000E376E37C53BF538C53CF5F8
:1017300039683A68610078F4D9F461007CF4DAF42D
:10174000DEC4F6F4DDC4F7F4F86A0800F550250AA3
:10175000D8A4ADEF0BF0AFEF0BF0C8EF0BF06100CA
:1017600078F4D9F461007CF4DAF4DE2A000EDD228C
:10177000000E146E250E136E1CC515F51DC516F54D
:10178000F8EC0BF0000E1D6E010E1C6EF7EF0BF067
:10179000610078F4D9F461007CF4DAF4DE2A000EFA
:1017A000DD22000E1D6E000E1C6EF7EF0BF06100C7
:1017B00078F4D9F461007CF4DAF4DEC4F6F4DDC424
:1017C000F7F4F86A0800F550136E146A1CC515F595
:1017D0001DC516F5F8EC0BF0610078F4D9F4610042
:1017E0007CF4DAF4DE2A000EDD22C2EF0BF01200E8
:1017F00015501610D8B4FFEF0BF001EF0CF00AEF04
:101800000CF015501610D8A408EF0CF00AEF0CF0ED
:101810000FEF0CF013505DEC0EF042EF0CF020EEE9
:1018200009F01550D9261650DA22DE50DE10D8B451
:101830001CEF0CF01EEF0CF039EF0CF020EE09F06D
:101840001550D9261650DA2210EE03F01550E12675
:101850001650E222DE50E65CE650800A1B6EDE5037
:10186000800A1B58D8B037EF0CF039EF0CF042EF7C
:101870000CF020EE03F01550D9261650DA22DE2A9D
:10188000000EDD221200000EBE6E000EBF6E000EB6
:10189000C06E3F0EC66E200EC76EFD0EC86E7C0E6B
:1018A0000401106F800E086F370E006F000E096F75
:1018B000000E016F010E116F000E026F500E0A6FC5
:1018C000000E126F370E036FF00E0B6F13693F0E91
:1018D000046FF00E0C6F1469179F168F159FFC0E86
:1018E000116E1C0E126E71EC0EF0A88E0C0E020121
:1018F000706F210E0F6F100E106F220E0D6F0D0EF8
:10190000726F0E0E716F12006100E8F30BF561004B
:10191000ECF30CF56100D8F30DF56100DCF30EF586
:101920006100E0F30FF56100D4F310F5A8AE9BEF72
:101930000CF09DEF0CF0A6EF0CF0B3AEA2EF0CF0A4
:10194000A4EF0CF0A6EF0CF04BEC0EF0610040F4AD
:10195000F5F461003CF4F8F4610038F4F7F4610048
:1019600034F4F6F4610030F4FBF461002CF4FAF482
:101970001100000E0201A56F000EA66F000EA76FEA
:10198000000EA86F000EA96F000EAA6FA00EAB6F1D
:10199000800EAC6F000EAD6F190EAE6F000EAF6F04
:1019A000000EB06F000EB16F000EB26F000EB36F7D
:1019B000000E116E000E126E67EC0EF0000E116E2E
:1019C000000E126E62EC0EF0000E116E000E126E22
:1019D0006CEC0EF0000E3D6E120024C528F525C5F6
:1019E00029F5000E366E000E356E09EF0DF022C59A
:1019F0001CF523C51DF5280E1E6E050E1F6E26C58F
:101A000020F527C521F572EC0BF01C5035261D5032
:101A100036226100A0F4F6F46100A4F4F7F4F86A49
:101A20000800F5500009D8A418EF0DF01AEF0DF0DA
:101A3000F7EF0CF035C522F536C523F51200000E80
:101A40001A6E000E196E38EF0DF019501524176E2E
:101A50001A501620186E61005CF4F6F4610060F410
:101A6000F7F4F86A0800F55033EC0EF0194A1A2A18
:101A700015C511F516C512F575EC0DF01150195C70
:101A800012501A58D8A047EF0DF049EF0DF025EF8E
:101A90000DF01200000E0A6E000E096E63EF0DF0DD
:101AA00009500524076E0A500620086E61001CF4D8
:101AB000F6F4610020F4F7F4F86A0800F5503FEC02
:101AC0000EF0094A0A2A05C501F506C502F595EC8E
:101AD0000DF00150095C02500A58D8A072EF0DF0C9
:101AE00074EF0DF050EF0DF0120011C513F512C593
:101AF00014F57DEF0DF0114A122A610044F4F6F45A
:101B0000610048F4F7F4F86A0800F5500009D8A419
:101B10008CEF0DF08EEF0DF07BEF0DF01350115C9C
:101B2000116E14501258126E120001C503F502C551
:101B300004F59DEF0DF0014A022A610004F4F6F469
:101B4000610008F4F7F4F86A0800F5500009D8A419
:101B5000ACEF0DF0AEEF0DF09BEF0DF00350015C1C
:101B6000016E04500258026E12003E503F10D8B46D
:101B7000BCEF0DF0BEEF0DF0CAEF0DF002D8CAEFCA
:101B80000DF00500FA6E3E50FD6E3F50FE6EFF6A8E
:101B9000FA5012000401179F120001EE60F1440E8A
:101BA000EE6AE806FDE101EE35F1090EEE6AE8069F
:101BB000FDE10401080E5D6F000E5E6F000E5F6FA9
:101BC0000001A2EF0AF0040E0201946F800E956FDF
:101BD000180E966F030E9E6F000E9A6F000E9B6F8D
:101BE000000E976F000E8C6F000E8D6F12002C0E82
:101BF0002C6E050E2D6E000E226E000E236E2AC571
:101C000024F52BC525F52C0E266E050E276EEDEC62
:101C10000CF01200000E0001636F000E646F000EE6
:101C2000656F000E666F000E676F000E686F120022
:101C3000600E0001AD6F000EAF6F000EB36F000EAF
:101C4000B16F000EB06F000EAC6F12007CEC0EF0A6
:101C50000AEC0EF0E3EC0DF043EC0CF018EC0EF097
:101C6000B9EC0CF01200116EB7A239EF0EF03BEF99
:101C70000EF034EF0EF0610044F4A3F21200016E96
:101C8000B7A245EF0EF047EF0EF040EF0EF0610007
:101C900004F4A3F21200040117AF51EF0EF053EF5A
:101CA0000EF055EF0EF0B5EC0DF01200350E056E8E
:101CB000150E066E4AEC0DF01200126E125033EC47
:101CC0000EF0120011C542F512C543F5120011C500
:101CD00044F512C545F5120011C540F512C541F590
:101CE000120011C53EF512C53FF51200F29EF29C9E
:0E1CF0001200030000F01200D69A120012003B
:020000040020DA
:10000000FF0FFF0FFF0FFF0FFF0FFF0FFF0FFF0F80
:10001000FF0FFF0FFF0FFF0FFF0FFF0FFF0FFF0F70
:10002000FF0FFF0FFF0FFF0FFF0FFF0FFF0FFF0F60
:10003000FF0FFF0FFF0FFF0FFF0FFF0FFF0FFF0F50
:020000040030CA
:0A0000008CFFF7FF9FFFFFFFFFFFDB
:00000001FF
