:04000000FEEF7FF0A0
:1016000000000000000000000000000000000000DA
:1016100000000000000000000000000000000000CA
:101620000000000000000054657374320A0D005081
:0F1630005348320A005465737400505348000049
:101640006100ECF4D9F46100F0F4DAF4DEC4F6F4ED
:10165000DDC4F7F4F86A0800F550250AD8A433EF82
:101660000BF035EF0BF085EF0BF06100ECF4D9F4E3
:101670006100F0F4DAF4DE2A000EDD22000E286E9E
:10168000000E276E27C52BF528C52CF529682A687A
:101690006100ECF4D9F46100F0F4DAF4DEC4F6F49D
:1016A000DDC4F7F4F86A0800F550250AD8A45BEF0A
:1016B0000BF05DEF0BF076EF0BF06100ECF4D9F47A
:1016C0006100F0F4DAF4DE2A000EDD22000E316E45
:1016D000250E306E39C532F53AC533F501EC0CF004
:1016E000000E3A6E010E396EA5EF0BF06100ECF4BE
:1016F000D9F46100F0F4DAF4DE2A000EDD22000EE7
:101700003A6E000E396EA5EF0BF06100ECF4D9F4DF
:101710006100F0F4DAF4DEC4F6F4DDC4F7F4F86A3C
:101720000800F550306E316A39C532F53AC533F5E7
:1017300001EC0CF06100ECF4D9F46100F0F4DAF49F
:10174000DE2A000EDD2270EF0BF0120092EC0DF09D
:10175000350E326E160E336EE9EC0CF0270E476E26
:10176000160E486E48EC0DF0C092020E4C6EE70E5D
:101770004B6E000EE82EFED74B2EFCD74C2EFAD720
:1017800000D0000E4D6ED0B0C8EF0BF0CAEF0BF0DA
:10179000E3EF0BF04D50D8A4D0EF0BF0D2EF0BF0ED
:1017A000E3EF0BF0010E4D6E3A0E326E160E336EF5
:1017B000E9EC0CF02F0E476E160E486E48EC0DF05B
:1017C000C092F4EF0BF0D0A0E8EF0BF0EAEF0BF0D3
:1017D000F4EF0BF04D04D8A4F0EF0BF0F2EF0BF0A8
:1017E000F4EF0BF0000E4D6E4D50D8A4FAEF0BF055
:1017F000FCEF0BF0C3EF0BF0C082C3EF0BF0FEEF7A
:101800007FF032503310D8B408EF0CF00AEF0CF030
:1018100013EF0CF032503310D8A411EF0CF013EF8B
:101820000CF018EF0CF030509DEC0DF04BEF0CF07D
:1018300020EE04F03250D9263350DA22DE50DE108A
:10184000D8B425EF0CF027EF0CF042EF0CF020EEAF
:1018500004F03250D9263350DA2210EE02F0325022
:10186000E1263350E222DE50E65CE650800A386E14
:10187000DE50800A3858D8B040EF0CF042EF0CF040
:101880004BEF0CF020EE02F03250D9263350DA2222
:10189000DE2A000EDD221200000EBE6E000EBF6EAC
:1018A000000EC06E3F0EC66E200EC76EFD0EC86ED7
:1018B000FC0E0401106F800E086F370E006F000ED3
:1018C000096F000E016F010E116F000E026F500EB6
:1018D0000A6F000E126F370E036FF00E0B6F136955
:1018E0003F0E046FF00E0C6F14690C0E0201706F46
:1018F000210E0F6F100E106F220E0D6F0D0E726FF6
:101900000E0E716F1200000E0201A56F000EA66F81
:10191000000EA76F000EA86F000EA96F000EAA6F31
:10192000A00EAB6F800EAC6F000EAD6F190EAE6FD8
:10193000000EAF6F000EB06F000EB16F000EB26FF1
:10194000000EB36F000E2E6E000E2F6EA7EC0DF082
:10195000000E2E6E000E2F6EA2EC0DF0000E2E6EFD
:10196000000E2F6EACEC0DF0000E2D6E120041C576
:1019700045F542C546F5000E266E000E256ED3EFE6
:101980000CF03FC539F540C53AF5450E3B6E050EE6
:101990003C6E43C53DF544C53EF520EC0BF0395097
:1019A00025263A502622610014F5F6F4610018F558
:1019B000F7F4F86A0800F5500009D8A4E2EF0CF03B
:1019C000E4EF0CF0C1EF0CF025C53FF526C540F55E
:1019D0001200000E376E000E366E02EF0DF036501C
:1019E0003224346E37503320356E6100D0F4F6F473
:1019F0006100D4F4F7F4F86A0800F55086EC0DF0B5
:101A0000364A372A32C52EF533C52FF514EC0DF0C2
:101A10002E50365C2F503758D8A011EF0DF013EF31
:101A20000DF0EFEF0CF012002EC530F52FC531F59B
:101A30001CEF0DF02E4A2F2A6100B8F4F6F4610075
:101A4000BCF4F7F4F86A0800F5500009D8A42BEFAD
:101A50000DF02DEF0DF01AEF0DF030502E5C2E6EC4
:101A600031502F582F6E1200040E0201946F800E19
:101A7000956F180E966F030E9E6F000E9A6F000EF4
:101A80009B6F000E976F000E8C6F000E8D6F120013
:101A9000490E496E050E4A6E000E3F6E000E406EF6
:101AA00047C541F548C542F5490E436E050E446EE3
:101AB000B7EC0CF0120001EE60F1200EEE6AE806C1
:101AC000FDE101EE01F12D0EEE6AE806FDE10001F7
:101AD000A6EF0BF0000E0001636F000E646F000EA6
:101AE000656F000E666F000E676F000E686F120064
:101AF000600E0001AD6F000EAF6F000EB36F000EF1
:101B0000B16F000EB06F000EAC6F12002E6EB7A258
:101B10008CEF0DF08EEF0DF087EF0DF06100B8F453
:101B2000A3F212006AEC0DF034EC0DF04CEC0CF06A
:101B300078EC0DF083EC0CF012002F6E2F5086EC39
:101B40000DF012002EC550F52FC551F512002EC50F
:101B500052F52FC553F512002EC54EF52FC54FF582
:021B6000120071
:04FFFC005BEF0DF0BA
:020000040020DA
:10000000FF0FFF0FFF0FFF0FFF0FFF0FFF0FFF0F80
:10001000FF0FFF0FFF0FFF0FFF0FFF0FFF0FFF0F70
:020000040030CA
:0A0000008CFFF7FF9FFFFFFFFFFFDB
:00000001FF
