:040000000DEF00F010
:04000800BFEF0DF049
:06001800FF0041EF0EF0B5
:1016000000000000000000000000000000000000DA
:1016100000000000000000000000000000000000CA
:101620000000000000000054657374320A0D005081
:101630005348320A0042544E3100546573740050CE
:10164000534800009BEC0EF0EBEC0EF0960E3C6E57
:101650001D0E3D6EE6EC0EF03A0E406E160E416E1B
:1016600069EC0DF0270E4F6E160E506E57EC0EF013
:10167000C092020E0501896FE70E886F000EE82EFA
:10168000FED7882FFCD7892FFAD700F0000E05016E
:101690008E6F000E8D6F000E8C6FD0BE52EF0BF070
:1016A00054EF0BF06CEF0BF005018D51D8A45BEFFC
:1016B0000BF05DEF0BF06CEF0BF08C51D8B463EFD7
:1016C0000BF066EF0BF0010E67EF0BF0000E8C6F66
:1016D000010E8D6F7EEF0BF0D0AE71EF0BF073EF5C
:1016E0000BF07EEF0BF005018D05D8A47AEF0BF01F
:1016F0007CEF0BF07EEF0BF0000E8D6F05018C512F
:10170000D8B485EF0BF087EF0BF0B2EF0BF0000EC3
:101710008B6F000E8A6FC092A30E0501886F550E65
:10172000E82EFED7882FFCD7C082A30E0501886F54
:10173000550EE82EFED7882FFCD705018A4B8B2B40
:101740008BBFACEF0BF08B5109E10A0E8A5DD8A07C
:10175000ACEF0BF0AEEF0BF08BEF0BF0EEEC0EF00E
:101760004DEF0BF0D0B0B7EF0BF0B9EF0BF0D2EFBD
:101770000BF08E51D8A4BFEF0BF0C1EF0BF0D2EFFE
:101780000BF0010E8E6F3F0E406E160E416E69EC2F
:101790000DF02F0E4F6E160E506E57EC0EF0C092DD
:1017A000E3EF0BF0D0A0D7EF0BF0D9EF0BF0E3EFA6
:1017B0000BF08E05D8A4DFEF0BF0E1EF0BF0E3EFB9
:1017C0000BF0000E8E6F05018E51D8A4EAEF0BF0DE
:1017D000ECEF0BF04DEF0BF0C0824DEF0BF00DEF87
:1017E00000F0610024F5D9F4610028F5DAF4DEC4D4
:1017F000F6F4DDC4F7F4F86A0800F550250AD8A419
:1018000004EF0CF006EF0CF056EF0CF0610024F53D
:10181000D9F4610028F5DAF4DE2A000EDD22000E8C
:10182000286E000E276E27C52BF528C52CF52968D4
:101830002A68610024F5D9F4610028F5DAF4DEC4E1
:10184000F6F4DDC4F7F4F86A0800F550250AD8A4C8
:101850002CEF0CF02EEF0CF047EF0CF0610024F5AC
:10186000D9F4610028F5DAF4DE2A000EDD22000E3C
:101870003F6E250E3E6E47C540F548C541F577ECF5
:101880000CF0000E486E010E476E76EF0CF0610012
:1018900024F5D9F4610028F5DAF4DE2A000EDD2201
:1018A000000E486E000E476E76EF0CF0610024F5D6
:1018B000D9F4610028F5DAF4DEC4F6F4DDC4F7F4F7
:1018C000F86A0800F5503E6E3F6A47C540F548C5C6
:1018D00041F577EC0CF0610024F5D9F4610028F5AE
:1018E000DAF4DE2A000EDD2241EF0CF01200405047
:1018F0004110D8B47EEF0CF080EF0CF089EF0CF0C3
:1019000040504110D8A487EF0CF089EF0CF08EEF17
:101910000CF03E50D2EC0EF0C1EF0CF020EE04F0D3
:101920004050D9264150DA22DE50DE10D8B49BEF69
:101930000CF09DEF0CF0B8EF0CF020EE04F04050EE
:10194000D9264150DA2210EE02F04050E1264150F3
:10195000E222DE50E65CE650800A466EDE50800AE7
:101960004658D8B0B6EF0CF0B8EF0CF0C1EF0CF061
:1019700020EE02F04050D9264150DA22DE2A000E35
:10198000DD221200000EBE6E000EBF6E000EC06E95
:101990003F0EC66E200EC76EFD0EC86E7C0E040193
:1019A000106F800E086F370E006F000E096F000E6B
:1019B000016F010E116F000E026F500E0A6F000EC4
:1019C000126F370E036FF00E0B6F13693F0E046F2B
:1019D000F00E0C6F1469179F168F159FE60E3C6E64
:1019E0001D0E3D6EE6EC0EF0A88E0C0E0201706F1F
:1019F000210E0F6F100E106F220E0D6F0D0E726FF5
:101A00000E0E716F1200000E0201A56F000EA66F80
:101A1000000EA76F000EA86F000EA96F000EAA6F30
:101A2000A00EAB6F800EAC6F000EAD6F190EAE6FD7
:101A3000000EAF6F000EB06F000EB16F000EB26FF0
:101A4000000EB36F000E3C6E000E3D6EDCEC0EF02F
:101A5000000E3C6E000E3D6ED7EC0EF0000E3C6E9C
:101A6000000E3D6EE1EC0EF0000E2D6E120082C5F0
:101A70004DF583C54EF5000E266E000E256E53EF14
:101A80000DF080C547F581C548F54D0E496E050E30
:101A90004A6E84C54BF585C54CF5F1EC0BF047500B
:101AA000252648502622610034F5F6F4610038F509
:101AB000F7F4F86A0800F5500009D8A462EF0DF0B9
:101AC00064EF0DF041EF0DF025C580F526C581F5D9
:101AD0001200000E456E000E446E82EF0DF0445071
:101AE0004024426E45504120436E610008F5F6F4F3
:101AF00061000CF5F7F4F86A0800F550A8EC0EF058
:101B0000444A452A40C53CF541C53DF5E8EC0DF099
:101B10003C50445C3D504558D8A091EF0DF093EFF8
:101B20000DF06FEF0DF01200000E376E000E366EE6
:101B3000ADEF0DF036503224346E37503320356E11
:101B40006100D0F4F6F46100D4F4F7F4F86A080008
:101B5000F550B4EC0EF0364A372A32C52EF533C5AF
:101B60002FF508EC0EF02E50365C2F503758D8A0C9
:101B7000BCEF0DF0BEEF0DF09AEF0DF0120061001A
:101B8000D8F338F56100DCF339F56100E0F33AF59C
:101B90006100D4F33BF5A8AED0EF0DF0D2EF0DF01D
:101BA000DBEF0DF0B3AED7EF0DF0D9EF0DF0DBEFBB
:101BB0000DF0C0EC0EF06100ECF4F5F46100E8F417
:101BC000F8F46100E4F4F7F46100E0F4F6F41100D5
:101BD0003CC53EF53DC53FF5F0EF0DF03C4A3D2AD2
:101BE0006100F0F4F6F46100F4F4F7F4F86A080028
:101BF000F5500009D8A4FFEF0DF001EF0EF0EEEF65
:101C00000DF03E503C5C3C6E3F503D583D6E120026
:101C10002EC530F52FC531F510EF0EF02E4A2F2AC4
:101C20006100B8F4F6F46100BCF4F7F4F86A080057
:101C3000F5500009D8A41FEF0EF021EF0EF00EEFC3
:101C40000EF030502E5C2E6E31502F582F6E120039
:101C500005018F519011D8B430EF0EF032EF0EF035
:101C60003EEF0EF002D83EEF0EF00500FA6E8F51F7
:101C7000FD6E9051FE6EFF6AFA5012000401179F2C
:101C8000120001EE60F1200EEE6AE806FDE101EEC1
:101C900001F12D0EEE6AE806FDE10401080E5D6F0C
:101CA000000E5E6F000E5F6F000122EF0BF0510E11
:101CB0000501866F050E876F000E806F000E816F25
:101CC0004FC582F550C583F5860E846F050E856F6E
:101CD00037EC0DF01200040E0201946F800E956F28
:101CE000180E966F030E9E6F000E9A6F000E9B6F7C
:101CF000000E976F000E8C6F000E8D6F1200000E9D
:101D00000001636F000E646F000E656F000E666F5A
:101D1000000E676F000E686F1200600E0001AD6F5D
:101D2000000EAF6F000EB36F000EB16F000EB06FFC
:101D3000000EAC6F1200F1EC0EF07FEC0EF06BECCD
:101D40000EF0C2EC0CF08DEC0EF003EC0DF0120076
:101D50003C6EB7A2AEEF0EF0B0EF0EF0A9EF0EF0B2
:101D60006100F0F4A3F212002E6EB7A2BAEF0EF0EB
:101D7000BCEF0EF0B5EF0EF06100B8F4A3F2120064
:101D8000040117AFC6EF0EF0C8EF0EF0CAEF0EF069
:101D900028EC0EF01200350E326E160E336E94ECF7
:101DA0000DF012003D6E3D50A8EC0EF012003CC547
:101DB00093F53DC594F512003CC595F53DC596F5E6
:101DC00012003CC591F53DC592F512003CC58FF55A
:101DD0003DC590F51200F29EF29C1200030000F047
:081DE0001200D69A1200120055
:020000040020DA
:10000000FF0FFF0FFF0FFF0FFF0FFF0FFF0FFF0F80
:10001000FF0FFF0FFF0FFF0FFF0FFF0FFF0FFF0F70
:020000040030CA
:0A0000008CFFF7FF9FFFFFFFFFFFDB
:00000001FF
