:040000000DEF00F010
:040008004BEF0BF0BF
:06001800FF0076EF0CF082
:1015000000000000000000000000000000000000DB
:1015100000000000000000000000000000000000CB
:1015200000000000000000556E646572776174650C
:101530007220496E70757420506C6174666F726DA4
:101540000D0A0056657273696F6E20302E313009B6
:1015500028322F332F32303232290D0A0A0042410D
:10156000543F3F0D0A0042544E310D0A0000A2ECD8
:101570000CF0EDEC0CF0A40E366E190E376EE8ECA4
:101580000CF0D68EC092020E416E450E406EAA0E31
:10159000E82EFED7402EFCD7412EFAD7270E3A6E02
:1015A000150E3B6EB4EC0BF0430E3A6E150E3B6E0F
:1015B000B4EC0BF0000E436E000E426EC092520E61
:1015C000406E2A0EE82EFED7402EFCD7C082520E67
:1015D000406E2A0EE82EFED7402EFCD7424A432A00
:1015E00043BEFCEF0AF0435009E1050E425CD8A06F
:1015F000FCEF0AF0FEEF0AF0DEEF0AF05E0E3A6E44
:10160000150E3B6EB4EC0BF0F0EC0CF0DAEF0AF0D8
:101610000DEF00F0000EBE6E000EBF6E000EC06E2D
:101620003F0EC66E200EC76EFD0EC86E7C0E040106
:10163000106F800E086F370E006F000E096F000EDE
:10164000016F000E116F000E026F500E0A6F000E38
:10165000126F370E036FF00E0B6F13693F0E046F9E
:10166000F00E0C6F1469179116811591EA0E366E03
:10167000190E376EE8EC0CF0A88E0C0E0201706F9C
:10168000210E0F6F100E106F220E0D6F0D0E726F68
:101690000E0E716F12006100E8F330F56100ECF39B
:1016A00031F56100D8F332F56100DCF333F5610008
:1016B000E0F334F56100D4F335F5A8AE62EF0BF03A
:1016C00064EF0BF06DEF0BF0B3AE69EF0BF06BEF67
:1016D0000BF06DEF0BF0C7EC0CF06100D4F4F5F4F7
:1016E0006100D0F4F8F46100CCF4F7F46100C8F4C0
:1016F000F6F46100C4F4FBF46100C0F4FAF41100E4
:10170000000E0201A56F000EA66F000EA76F000E5F
:10171000A86F000EA96F000EAA6FA00EAB6F800E0F
:10172000AC6F000EAD6F190EAE6F000EAF6F000EF6
:10173000B06F000EB16F000EB26F000EB36F000EEF
:10174000366E000E376EDEEC0CF0000E366E000EBC
:10175000376ED9EC0CF0000E366E000E376EE3ECEF
:101760000CF0000E256E1200000E3F6E000E3E6E55
:10177000CDEF0BF03E503A243C6E3F503B203D6E87
:101780006100F0F4F6F46100F4F4F7F4F86A08008C
:10179000F550AFEC0CF03E4A3F2A3AC536F53BC552
:1017A00037F50AEC0CF036503E5C37503F58D8A065
:1017B000DCEF0BF0DEEF0BF0BAEF0BF01200000ED7
:1017C0002F6E000E2E6EF8EF0BF02E502A242C6E8A
:1017D0002F502B202D6E6100B0F4F6F46100B4F4AC
:1017E000F7F4F86A0800F550BBEC0CF02E4A2F2AEB
:1017F0002AC526F52BC527F52AEC0CF026502E5CC1
:1018000027502F58D8A007EF0CF009EF0CF0E5EFA8
:101810000BF0120036C538F537C539F512EF0CF06C
:10182000364A372A6100D8F4F6F46100DCF4F7F4A4
:10183000F86A0800F5500009D8A421EF0CF023EF56
:101840000CF010EF0CF03850365C366E39503758CB
:10185000376E120026C528F527C529F532EF0CF0A2
:10186000264A272A610098F4F6F461009CF4F7F404
:10187000F86A0800F5500009D8A441EF0CF043EFD6
:101880000CF030EF0CF02850265C266E29502758BB
:10189000276E120044504510D8B451EF0CF053EFAE
:1018A0000CF05FEF0CF002D85FEF0CF00500FA6E61
:1018B0004450FD6E4550FE6EFF6AFA50120004015E
:1018C00017911200040E0201946F800E956F180E8E
:1018D000966F030E9E6F000E9A6F000E9B6F000EA8
:1018E000976F000E8C6F000E8D6F120001EE01F1EC
:1018F000250EEE6AE806FDE10401080E5D6F000E9C
:101900005E6F000E5F6F0001B7EF0AF0000E00017E
:10191000636F000E646F000E656F000E666F000E41
:10192000676F000E686F1200600E0001AD6F000E51
:10193000AF6F000EB36F000EB16F000EB06F000EF0
:10194000AC6F1200F3EC0CF086EC0CF062EC0CF0D7
:101950000AEC0BF094EC0CF080EC0BF01200366EFD
:10196000B7A2B5EF0CF0B7EF0CF0B0EF0CF06100E0
:10197000D8F4A3F21200266EB7A2C1EF0CF0C3EFA9
:101980000CF0BCEF0CF0610098F4A3F2120004011B
:1019900017A1CDEF0CF0CFEF0CF0D1EF0CF04AEC2B
:1019A0000CF01200660E2A6E150E2B6EDFEC0BF09B
:1019B000120036C548F537C549F5120036C54AF557
:1019C00037C54BF5120036C546F537C547F5120049
:1019D00036C544F537C545F51200F29EF29C12005B
:0C19E000030000F01200D69A1200120062
:020000040020DA
:10000000FF0FFF0FFF0FFF0FFF0FFF0FFF0FFF0F80
:10001000FF0FFF0FFF0FFF0FFF0FFF0FFF0FFF0F70
:10002000FF0FFF0FFF0FFF0FFF0FFF0FFF0FFF0F60
:10003000FF0FFF0FFF0FFF0FFF0FFF0FFF0FFF0F50
:020000040030CA
:0A0000008CFFF7FF9FFFFFFFFFFFDB
:00000001FF
