:040000000DEF00F010
:0400080073EF0BF097
:06001800FF009EEF0CF05A
:1015000000000000000000000000000000000000DB
:1015100000000000000000000000000000000000CB
:101520000000000000000044657669636520706F6C
:101530007765726564206F6E004241543F3F004200
:09154000544E31005053480000E4
:10154A00CAEC0CF015EC0DF0F40E366E190E376E6F
:10155A0010EC0DF0D68EC092020E416EE70E406E70
:10156A00000EE82EFED7402EFCD7412EFAD700D027
:10157A00270E3A6E150E3B6EDCEC0BF0000E446E35
:10158A00D0BECAEF0AF0CCEF0AF0FAEF0AF0000E6A
:10159A00436E000E426EC092520E406E2A0EE82E24
:1015AA00FED7402EFCD7C082520E406E2A0EE82E7D
:1015BA00FED7402EFCD7424A432A43BEEEEF0AF03A
:1015CA00435009E1050E425CD8A0EEEF0AF0F0EFB5
:1015DA000AF0D0EF0AF0390E3A6E150E3B6EDCECCB
:1015EA000BF018EC0DF0C5EF0AF0D0B0FFEF0AF0DF
:1015FA0001EF0BF014EF0BF04450D8A407EF0BF0F7
:10160A0009EF0BF014EF0BF0010E446E440E3A6E24
:10161A00150E3B6EDCEC0BF0C09225EF0BF0D0A060
:10162A0019EF0BF01BEF0BF025EF0BF04404D8A4D5
:10163A0021EF0BF023EF0BF025EF0BF0000E446EB9
:10164A004450D8A42BEF0BF02DEF0BF0C5EF0AF0A6
:10165A00C082C5EF0AF00DEF00F0000EBE6E000E5C
:10166A00BF6E000EC06E3F0EC66E200EC76EFD0E18
:10167A00C86E7C0E0401106F800E086F370E006F63
:10168A00000E096F000E016F000E116F000E026F3F
:10169A00500E0A6F000E126F370E036FF00E0B6FAB
:1016AA0013693F0E046FF00E0C6F146917911681BF
:1016BA0015913A0E366E1A0E376E10EC0DF0A88E92
:1016CA000C0E0201706F210E0F6F100E106F220E9A
:1016DA000D6F0D0E726F0E0E716F12006100E8F33E
:1016EA0030F56100ECF331F56100D8F332F56100B1
:1016FA00DCF333F56100E0F334F56100D4F335F53A
:10170A00A8AE8AEF0BF08CEF0BF095EF0BF0B3AEAF
:10171A0091EF0BF093EF0BF095EF0BF0EFEC0CF071
:10172A006100D4F4F5F46100D0F4F8F46100CCF46B
:10173A00F7F46100C8F4F6F46100C4F4FBF4610044
:10174A00C0F4FAF41100000E0201A56F000EA66F94
:10175A00000EA76F000EA86F000EA96F000EAA6FE9
:10176A00A00EAB6F800EAC6F000EAD6F190EAE6F90
:10177A00000EAF6F000EB06F000EB16F000EB26FA9
:10178A00000EB36F000E366E000E376E06EC0DF0CB
:10179A00000E366E000E376E01EC0DF0000E366E3E
:1017AA00000E376E0BEC0DF0000E256E1200000EC7
:1017BA003F6E000E3E6EF5EF0BF03E503A243C6E43
:1017CA003F503B203D6E6100F0F4F6F46100F4F402
:1017DA00F7F4F86A0800F550D7EC0CF03E4A3F2AB5
:1017EA003AC536F53BC537F532EC0CF036503E5C5F
:1017FA0037503F58D8A004EF0CF006EF0CF0E2EF98
:10180A000BF01200000E2F6E000E2E6E20EF0CF061
:10181A002E502A242C6E2F502B202D6E6100B0F4EE
:10182A00F6F46100B4F4F7F4F86A0800F550E3EC52
:10183A000CF02E4A2F2A2AC526F52BC527F552EC7D
:10184A000CF026502E5C27502F58D8A02FEF0CF002
:10185A0031EF0CF00DEF0CF0120036C538F537C534
:10186A0039F53AEF0CF0364A372A6100D8F4F6F423
:10187A006100DCF4F7F4F86A0800F5500009D8A40E
:10188A0049EF0CF04BEF0CF038EF0CF03850365CA7
:10189A00366E39503758376E120026C528F527C5D7
:1018AA0029F55AEF0CF0264A272A610098F4F6F433
:1018BA0061009CF4F7F4F86A0800F5500009D8A40E
:1018CA0069EF0CF06BEF0CF058EF0CF02850265C27
:1018DA00266E29502758276E120045504610D8B454
:1018EA0079EF0CF07BEF0CF087EF0CF002D887EF62
:1018FA000CF00500FA6E4550FD6E4650FE6EFF6A0A
:10190A00FA501200040117911200040E0201946F9A
:10191A00800E956F180E966F030E9E6F000E9A6FCB
:10192A00000E9B6F000E976F000E8C6F000E8D6F6E
:10193A00120001EE01F1250EEE6AE806FDE104014E
:10194A00080E5D6F000E5E6F000E5F6F0001A5EF5F
:10195A000AF0000E0001636F000E646F000E656FDF
:10196A00000E666F000E676F000E686F1200600E41
:10197A000001AD6F000EAF6F000EB36F000EB16FB6
:10198A00000EB06F000EAC6F12001BEC0DF0AEEC47
:10199A000CF08AEC0CF032EC0BF0BCEC0CF0A8EC7E
:1019AA000BF01200366EB7A2DDEF0CF0DFEF0CF091
:1019BA00D8EF0CF06100D8F4A3F21200266EB7A299
:1019CA00E9EF0CF0EBEF0CF0E4EF0CF0610098F4A7
:1019DA00A3F21200040117A1F5EF0CF0F7EF0CF0D7
:1019EA00F9EF0CF072EC0CF012003F0E2A6E150E95
:1019FA002B6E07EC0CF0120036C549F537C54AF5CF
:101A0A00120036C54BF537C54CF5120036C547F5F9
:101A1A0037C548F5120036C545F537C546F51200F3
:101A2A00F29EF29C1200030000F01200D69A1200F5
:021A3A00120098
:020000040020DA
:10000000FF0FFF0FFF0FFF0FFF0FFF0FFF0FFF0F80
:10001000FF0FFF0FFF0FFF0FFF0FFF0FFF0FFF0F70
:10002000FF0FFF0FFF0FFF0FFF0FFF0FFF0FFF0F60
:10003000FF0FFF0FFF0FFF0FFF0FFF0FFF0FFF0F50
:020000040030CA
:0A0000008CFFF7FF9FFFFFFFFFFFDB
:00000001FF
