:040000000DEF00F010
:04000800B0EF0BF05A
:06001800FF0046EF0CF0B2
:1016000000000000000000000000000000000000DA
:1016100000000000000000000000000000000000CA
:0D162000000000000000005465737400001D
:10162E00000EBE6E000EBF6E000EC06E3F0EC66E7A
:10163E00200EC76EC8687F0E0401106F800E086FF3
:10164E00330E006F000E096F000E016F000E116F4A
:10165E00000E026F500E0A6F000E126F370E036FE0
:10166E00F00E0B6F13693F0E046FF00E0C6F1469C2
:10167E000C0E0201706F210E0F6F020E3E6F100ED8
:10168E00106F220E0D6F0D0E3F6F170E726F0E0E36
:10169E00716F1200000E0201A56F000EA66F000EF4
:1016AE00A76F000EA86F000EA96F000EAA6FB00EE6
:1016BE00AB6F800EAC6F000EAD6F190EAE6F000EDD
:1016CE00AF6F000EB06F000EB16F000EB26F000E56
:1016DE00B36F000E306E000E316E9FEC0CF0000EEC
:1016EE00306E000E316E9AEC0CF0000E306E000E65
:1016FE00316EA4EC0CF0000E256E1200000E396E49
:10170E00000E386E9EEF0BF038503424366E395082
:10171E003520376E6100D8F4F6F46100DCF4F7F48E
:10172E00F86A0800F5508EEC0CF0384A392A34C5A8
:10173E0030F535C531F5D3EC0BF03050385C315007
:10174E003958D8A0ADEF0BF0AFEF0BF08BEF0BF0DD
:10175E001200A9A0B5EF0BF0B7EF0BF0C2EF0BF034
:10176E00B4A0BCEF0BF0BEEF0BF0C2EF0BF0B7EC7A
:10177E000CF0D2EF0BF0AEA0C7EF0BF0C9EF0BF0F1
:10178E00D2EF0BF0B9A0CEEF0BF0D0EF0BF0D2EF03
:10179E000BF0B3EC0CF0110030C532F531C533F55A
:1017AE00DBEF0BF0304A312A6100C0F4F6F4610031
:1017BE00C4F4F7F4F86A0800F5500009D8A4EAEF6B
:1017CE000BF0ECEF0BF0D9EF0BF03250305C306ECB
:1017DE0033503158316E120026502710D8B4FAEF1C
:1017EE000BF0FCEF0BF008EF0CF002D808EF0CF04A
:1017FE000500FA6E2650FD6E2750FE6EFF6AFA50F7
:10180E001200120028502910D8B410EF0CF012EF6D
:10181E000CF01EEF0CF002D81EEF0CF00500FA6E65
:10182E002850FD6E2950FE6EFF6AFA50120012000B
:10183E00040E0201946F800E956F180E966F030EB4
:10184E009E6F000E9A6F000E9B6F000E976F000E2C
:10185E008C6F000E8D6F1200B490D6907C0E306E91
:10186E00190E316EAEEC0CF0A980B990D6827A0EBC
:10187E00306E190E316EA9EC0CF0AE80120001EE36
:10188E0001F1250EEE6AE806FDE10401080E5D6F1A
:10189E00000E5E6F000E5F6F000181EF0CF0BBEC6F
:1018AE000CF065EC0CF01FEC0CF017EC0BF073EC7D
:1018BE000CF033EC0CF051EC0BF01200000E0001AA
:1018CE00636F000E646F000E656F000E666F000E84
:1018DE00676F000E686F1200600E0001AD6F000E94
:1018EE00AF6F000EB36F000EB16F000EB06F000E33
:1018FE00AC6F120056EC0CF0D68E270E346E160E10
:10190E00356E85EC0BF08AEF0CF00DEF00F0306EBB
:10191E00B7A294EF0CF096EF0CF08FEF0CF0610085
:10192E00C0F4A3F2120030C52CF531C52DF512000E
:10193E0030C52EF531C52FF5120030C52AF531C54B
:10194E002BF5120030C526F531C527F5120030C52E
:10195E0028F531C529F51200B990F3EC0BF0120001
:10196E00B49009EC0CF01200D69A1200120012007C
:020000040020DA
:10000000FF0FFF0FFF0FFF0FFF0FFF0FFF0FFF0F80
:10001000FF0FFF0FFF0FFF0FFF0FFF0FFF0FFF0F70
:020000040030CA
:0A000000ECFFF7FF9FFFFFFFFFFF7B
:00000001FF
