:04000000FEEF7FF0A0
:1016000000000000000000000000000000000000DA
:1016100000000000000000000000000000000000CA
:101620000000000000000054657374320A0D00547D
:05163000657374000069
:101636006100ECF4D9F46100F0F4DAF4DEC4F6F4F7
:10164600DDC4F7F4F86A0800F550250AD8A42EEF91
:101656000BF030EF0BF080EF0BF06100ECF4D9F4F7
:101666006100F0F4DAF4DE2A000EDD22000E286EA8
:10167600000E276E27C52BF528C52CF529682A6884
:101686006100ECF4D9F46100F0F4DAF4DEC4F6F4A7
:10169600DDC4F7F4F86A0800F550250AD8A456EF19
:1016A6000BF058EF0BF071EF0BF06100ECF4D9F48E
:1016B6006100F0F4DAF4DE2A000EDD22000E316E4F
:1016C600250E306E39C532F53AC533F5F0EC0BF020
:1016D600000E3A6E010E396EA0EF0BF06100ECF4CD
:1016E600D9F46100F0F4DAF4DE2A000EDD22000EF1
:1016F6003A6E000E396EA0EF0BF06100ECF4D9F4EF
:101706006100F0F4DAF4DEC4F6F4DDC4F7F4F86A46
:101716000800F550306E316A39C532F53AC533F5F1
:10172600F0EC0BF06100ECF4D9F46100F0F4DAF4BB
:10173600DE2A000EDD226BEF0BF0120081EC0DF0BD
:101746002F0E326E160E336ED8EC0CF0270E476E47
:10175600160E486E37EC0DF0C092020E4C6EE70E78
:101766004B6E000EE82EFED74B2EFCD74C2EFAD72A
:1017760000D0000E4D6ED0B0C3EF0BF0C5EF0BF0EE
:10178600D2EF0BF04D50D8A4CBEF0BF0CDEF0BF012
:10179600D2EF0BF0010E4D6EC092E3EF0BF0D0A02E
:1017A600D7EF0BF0D9EF0BF0E3EF0BF04D04D8A415
:1017B600DFEF0BF0E1EF0BF0E3EF0BF0000E4D6EF9
:1017C6004D50D8A4E9EF0BF0EBEF0BF0BEEF0BF0AA
:1017D600C082BEEF0BF0FEEF7FF032503310D8B46C
:1017E600F7EF0BF0F9EF0BF002EF0CF0325033107D
:1017F600D8A400EF0CF002EF0CF007EF0CF030501D
:101806008CEC0DF03AEF0CF020EE04F03250D926B5
:101816003350DA22DE50DE10D8B414EF0CF016EF97
:101826000CF031EF0CF020EE04F03250D926335094
:10183600DA2210EE02F03250E1263350E222DE5078
:10184600E65CE650800A386EDE50800A3858D8B01A
:101856002FEF0CF031EF0CF03AEF0CF020EE02F027
:101866003250D9263350DA22DE2A000EDD2212004B
:10187600000EBE6E000EBF6E000EC06E3F0EC66E30
:10188600200EC76EFD0EC86EFC0E0401106F800E92
:10189600086F370E006F000E096F000E016F010E04
:1018A600116F000E026F500E0A6F000E126F370E88
:1018B600036FF00E0B6F13693F0E046FF00E0C6F83
:1018C60014690C0E0201706F210E0F6F100E106F4F
:1018D600220E0D6F0D0E726F0E0E716F1200000E3E
:1018E6000201A56F000EA66F000EA76F000EA86F6F
:1018F600000EA96F000EAA6FA00EAB6F800EAC6F24
:10190600000EAD6F190EAE6F000EAF6F000EB06F0A
:10191600000EB16F000EB26F000EB36F000E2E6E8A
:10192600000E2F6E96EC0DF0000E2E6E000E2F6E32
:1019360091EC0DF0000E2E6E000E2F6E9BEC0DF04E
:10194600000E2D6E120041C545F542C546F5000E46
:10195600266E000E256EC2EF0CF03FC539F540C568
:101966003AF5450E3B6E050E3C6E43C53DF544C546
:101976003EF51BEC0BF0395025263A502622610025
:1019860014F5F6F4610018F5F7F4F86A0800F55056
:101996000009D8A4D1EF0CF0D3EF0CF0B0EF0CF0A7
:1019A60025C53FF526C540F51200000E376E000E20
:1019B600366EF1EF0CF036503224346E3750332049
:1019C600356E6100D0F4F6F46100D4F4F7F4F86AE9
:1019D6000800F55075EC0DF0364A372A32C52EF55B
:1019E60033C52FF503EC0DF02E50365C2F503758CB
:1019F600D8A000EF0DF002EF0DF0DEEF0CF01200B4
:101A06002EC530F52FC531F50BEF0DF02E4A2F2AD6
:101A16006100B8F4F6F46100BCF4F7F4F86A080063
:101A2600F5500009D8A41AEF0DF01CEF0DF009EFE0
:101A36000DF030502E5C2E6E31502F582F6E120046
:101A4600040E0201946F800E956F180E966F030EAA
:101A56009E6F000E9A6F000E9B6F000E976F000E22
:101A66008C6F000E8D6F1200490E496E050E4A6E80
:101A7600000E3F6E000E406E47C541F548C542F563
:101A8600490E436E050E446EA6EC0CF0120001EEF4
:101A960060F1200EEE6AE806FDE101EE01F12D0E81
:101AA600EE6AE806FDE10001A1EF0BF0000E000171
:101AB600636F000E646F000E656F000E666F000E9A
:101AC600676F000E686F1200600E0001AD6F000EAA
:101AD600AF6F000EB36F000EB16F000EB06F000E49
:101AE600AC6F12002E6EB7A27BEF0DF07DEF0DF0FE
:101AF60076EF0DF06100B8F4A3F2120059EC0DF088
:101B060023EC0DF03BEC0CF067EC0DF072EC0CF0F6
:101B160012002F6E2F5075EC0DF012002EC550F5E9
:101B26002FC551F512002EC552F52FC553F51200DB
:0A1B36002EC54EF52FC54FF5120025
:04FFFC004AEF0DF0CB
:020000040020DA
:10000000FF0FFF0FFF0FFF0FFF0FFF0FFF0FFF0F80
:10001000FF0FFF0FFF0FFF0FFF0FFF0FFF0FFF0F70
:020000040030CA
:0A0000008CFFF7FF9FFFFFFFFFFFDB
:00000001FF
