:040000000DEF00F010
:0400080064EF2EF083
:06001800FF0016EF2EF0C0
:10160000003063085F3462284A40531C579E5222C0
:10161000632A6426646460B463BC631463AC63F4DB
:1016200062C2591258E4620A556E64657277617439
:10163000657220496E70757420506C6174666F72AB
:101640006D0D0A0056657273696F6E20302E323050
:101650000928332F362F32303232290D0A0A004240
:10166000544E3025690D004241543025690D004229
:10167000415430300D0042415445520D0042415416
:1016800025690D006868580068686400686869002A
:1016900068686E0068686F00686875006868780040
:1016A0007A58007A64007A69007A6E007A6F007A5C
:1016B00075007A780000610020F5D9F4610024F506
:1016C000DAF4DEC4F6F4DDC4F7F4F86A0800F55085
:1016D000250AD8A46EEF0BF070EF0BF01FEF16F099
:1016E000610020F5D9F4610024F5DAF4DE2A000E59
:1016F000DD22000E0501D56F000ED46FD4C55DF557
:10170000D5C55EF5D669D769000E636F000E626FAE
:10171000D5EF0BF05D80610020F5D9F4610024F570
:10172000DAF4DE2A000EDD22D5EF0BF05D828BEFBE
:101730000BF05D848BEF0BF05D868BEF0BF05D881B
:101740008BEF0BF0000E636F010E626FD5EF0BF0A5
:10175000610020F5D9F4610024F5DAF4DEC4F6F472
:10176000DDC4F7F4F86A0800F5504C6E4D6A4D5030
:10177000000AD8B4BEEF0BF0A2EF0BF04C50200AD9
:10178000D8B49CEF0BF0030AD8B49FEF0BF0080A13
:10179000D8B499EF0BF0060AD8B48AEF0BF01D0A03
:1017A000D8B496EF0BF0A2EF0BF062516311D8B4EE
:1017B000DCEF0BF0DEEF0BF0A8EF0BF05DA0E3EF3A
:1017C0000BF0E5EF0BF0E6EF0BF05D92610020F51A
:1017D000D9F4610024F5DAF4DEC4F6F4DDC4F7F4DC
:1017E000F86A0800F5502A0AD8A4F9EF0BF0FBEFCD
:1017F0000BF02EEF0CF0610020F5D9F4610024F518
:10180000DAF4DE2A000EDD22610028F5D9F4610049
:101810002CF5DAF461007CF34CF5020EDE26610053
:101820007CF34DF5000EDD22610030F5D9F4610046
:1018300034F5DAF4610078F3D4F5610074F3D5F58A
:10184000D5BF27EF0CF025EF0CF07BEF0CF05D809F
:10185000D46DD51FD8B0D52B7BEF0CF0610020F5EF
:10186000D9F4610024F5DAF4610078F309F5610038
:1018700074F30AF559EC21F009C5D4F50AC5D5F57C
:101880004BEF0CF0610020F5D9F4610024F5DAF497
:10189000DE2A000EDD22D00E4C6EFF0E4D6E610072
:1018A00020F5D9F4610024F5DAF4DEC4F6F4DDC4E1
:1018B000F7F4F86A0800F5504E6E4F6A4C504E2609
:1018C0004D504F224F500AE10A0E4E5CD8A06BEFEC
:1018D0000CF06EEF0CF0010E6FEF0CF0000E050136
:1018E000646F656B64516511D8A479EF0CF07BEFE0
:1018F0000CF042EF0CF0610020F5D9F4610024F502
:10190000DAF4DEC4F6F4DDC4F7F4F86A0800F55042
:101910002E0AD8A48EEF0CF090EF0CF026EF0DF00D
:10192000000ED76F000ED66F610020F5D9F461006C
:1019300024F5DAF4DE2A000EDD22610020F5D9F468
:10194000610024F5DAF4DEC4F6F4DDC4F7F4F86AD5
:101950000800F5502A0AD8A4B0EF0CF0B2EF0CF052
:10196000D9EF0CF0610020F5D9F4610024F5DAF428
:10197000DE2A000EDD22610028F5D9F461002CF585
:10198000DAF461007CF34CF5020EDE2661007CF394
:101990004DF5000EDD22610030F5D9F4610034F51B
:1019A000DAF4610078F3D6F5610074F3D7F526EF29
:1019B0000DF0610020F5D9F4610024F5DAF461003E
:1019C00078F309F5610074F30AF559EC21F009C5C3
:1019D000D6F50AC5D7F5F6EF0CF0610020F5D9F47D
:1019E000610024F5DAF4DE2A000EDD22D00E4C6E02
:1019F000FF0E4D6E610020F5D9F4610024F5DAF494
:101A0000DEC4F6F4DDC4F7F4F86A0800F5504E6E53
:101A10004F6A4C504E264D504F224F500AE10A0E4D
:101A20004E5CD8A016EF0DF019EF0DF0010E1AEF75
:101A30000DF0000E0501666F676B66516711D8A443
:101A400024EF0DF026EF0DF0EDEF0CF0610020F526
:101A5000D9F4610024F5DAF4DEC4F6F4DDC4F7F459
:101A6000F86A0800F550630AD8A439EF0DF03BEF8F
:101A70000DF06AEF0DF0610020F5D9F4610024F556
:101A8000DAF4DE2A000EDD22610028F5D9F46100C7
:101A90002CF5DAF461007CF34CF5020EDE266100D1
:101AA0007CF34DF5000EDD22610030F5D9F46100C4
:101AB00034F5DAF4DF50726F46C50DF547C50EF503
:101AC00072C50FF51BEC28F00DC546F50EC547F5A0
:101AD0003FEF16F0610020F5D9F4610024F5DAF447
:101AE000610078F302F5610074F303F5880E046E6B
:101AF000160E056E000E076E030E066E31EC26F014
:101B000002500310D8B487EF0DF089EF0DF0A8EF65
:101B10000DF0610020F5D9F4610024F5DAF46100DC
:101B200078F302F5610074F303F58C0E046E160E63
:101B3000056E000E076E030E066E31EC26F00250A5
:101B40000310D8A4A6EF0DF0A8EF0DF0F1EF0DF003
:101B5000030E610020F5D9F4610024F5DAF4DE26E5
:101B6000000EDD22610028F5D9F461002CF5DAF4CD
:101B700061007CF34CF5020EDE2661007CF34DF52E
:101B8000000EDD22610030F5D9F4610034F5DAF49D
:101B9000DF500501686F000E68BFFF0E696F6A6F46
:101BA0006B6F6C6F6D6F6E6F6F6F46C51FF547C5BE
:101BB00020F568C521F569C522F56AC523F56BC511
:101BC00024F56CC525F56DC526F56EC527F56FC5E1
:101BD00028F56DEC1AF01FC546F520C547F53FEF17
:101BE00016F0610020F5D9F4610024F5DAF4610003
:101BF00078F302F5610074F303F5890E046E160E96
:101C0000056E000E076E020E066E31EC26F00250D5
:101C10000310D8B40EEF0EF010EF0EF02FEF0EF011
:101C2000610020F5D9F4610024F5DAF4610078F35D
:101C300002F5610074F303F58D0E046E160E056E49
:101C4000000E076E020E066E31EC26F002500310F5
:101C5000D8A42DEF0EF02FEF0EF061EF0EF0020E74
:101C6000610020F5D9F4610024F5DAF4DE26000ED7
:101C7000DD22610028F5D9F461002CF5DAF4610069
:101C80007CF34CF5020EDE2661007CF34DF5000E70
:101C9000DD22610030F5D9F4610034F5DAF4610039
:101CA00078F368F5610074F369F50501000E69BF0A
:101CB000FF0E6A6F6B6F6C6F6D6F6E6F6F6FD5EF2E
:101CC0000DF0610020F5D9F4610024F5DAF4DEC4EA
:101CD000F6F4DDC4F7F4F86A0800F550640AD8B4E5
:101CE00074EF0EF076EF0EF08BEF0EF0610020F542
:101CF000D9F4610024F5DAF4DEC4F6F4DDC4F7F4B7
:101D0000F86A0800F550690AD8A489EF0EF08BEF45
:101D10000EF0BCEF0EF0610020F5D9F4610024F55F
:101D2000DAF4DE2A000EDD22610028F5D9F4610024
:101D30002CF5DAF461007CF34CF5020EDE2661002E
:101D40007CF34DF5000EDD22610030F5D9F4610021
:101D500034F5DAF4610078F368F5610074F369F53D
:101D60000501000E69BFFF0E6A6F6B6F6C6F6D6FC0
:101D70006E6F6F6FD5EF0DF0610020F5D9F4610043
:101D800024F5DAF4610078F302F5610074F303F5E9
:101D9000A30E046E160E056E000E076E020E066E82
:101DA00031EC26F002500310D8B4D9EF0EF0DBEF7F
:101DB0000EF0FAEF0EF0610020F5D9F4610024F581
:101DC000DAF4610078F302F5610074F303F5A60E0E
:101DD000046E160E056E000E076E020E066E31ECD6
:101DE00026F002500310D8A4F8EF0EF0FAEF0EF030
:101DF0002DEF0FF0020E610020F5D9F4610024F5FB
:101E0000DAF4DE26000EDD22610028F5D9F4610047
:101E10002CF5DAF461007CF34CF5020EDE2661004D
:101E20007CF34DF5000EDD22610030F5D9F4610040
:101E300034F5DAF4610078F34EF5610074F34FF590
:101E40004EC568F54FC569F505016A6B6B6B6C6B28
:101E50006D6B6E6B6F6BD5EF0DF0610020F5D9F4F3
:101E6000610024F5DAF4610078F302F5610074F39F
:101E700003F5940E046E160E056E000E076E030E2B
:101E8000066E31EC26F002500310D8A44AEF0FF092
:101E90004CEF0FF094EF0FF0030E610020F5D9F432
:101EA000610024F5DAF4DE26000EDD22610028F55B
:101EB000D9F461002CF5DAF461007CF34CF5020EE4
:101EC000DE2661007CF34DF5000EDD22610030F569
:101ED000D9F4610034F5DAF4DF504E6E4E5005014E
:101EE000736F746B756B766B776B786B796B7A6BE2
:101EF00046C51FF547C520F573C521F574C522F504
:101F000075C523F576C524F577C525F578C526F57D
:101F100079C527F57AC528F589EC1FF01FC546F568
:101F200020C547F53FEF16F0610020F5D9F46100B8
:101F300024F5DAF4610078F302F5610074F303F537
:101F4000950E046E160E056E000E076E020E066EDE
:101F500031EC26F002500310D8A4B1EF0FF0B3EF2C
:101F60000FF0E6EF0FF0020E610020F5D9F46100EA
:101F700024F5DAF4DE26000EDD22610028F5D9F41E
:101F800061002CF5DAF461007CF34CF5020EDE26DC
:101F900061007CF34DF5000EDD22610030F5D9F4CF
:101FA000610034F5DAF4610078F34EF5610074F302
:101FB0004FF54EC573F54FC574F50501756B766B1E
:101FC000776B786B796B7A6B78EF0FF0610020F5A7
:101FD000D9F4610024F5DAF4DEC4F6F4DDC4F7F4D4
:101FE000F86A0800F5506F0AD8A4F9EF0FF0FBEF7C
:101FF0000FF02DEF10F0610020F5D9F4610024F509
:10200000DAF4DE2A000EDD22610028F5D9F4610041
:102010002CF5DAF461007CF34CF5020EDE2661004B
:102020007CF34DF5000EDD22610030F5D9F461003E
:1020300034F5DAF4610078F34EF5610074F34FF58E
:102040004EC573F54FC574F50501756B766B776BEF
:10205000786B796B7A6B78EF0FF0610020F5D9F42B
:10206000610024F5DAF4610078F302F5610074F39D
:1020700003F5AC0E046E160E056E000E076E020E12
:10208000066E31EC26F002500310D8A44AEF10F08F
:102090004CEF10F07FEF10F0020E610020F5D9F444
:1020A000610024F5DAF4DE26000EDD22610028F559
:1020B000D9F461002CF5DAF461007CF34CF5020EE2
:1020C000DE2661007CF34DF5000EDD22610030F567
:1020D000D9F4610034F5DAF4610078F34EF561006B
:1020E00074F34FF54EC573F54FC574F50501756B67
:1020F000766B776B786B796B7A6B78EF0FF06100AA
:1021000020F5D9F4610024F5DAF4610078F302F5E2
:10211000610074F303F5900E046E160E056E000E4A
:10212000076E030E066E31EC26F002500310D8A4A1
:102130009CEF10F09EEF10F0D3EF10F0030E610053
:1021400020F5D9F4610024F5DAF4DE26000EDD2254
:10215000610028F5D9F461002CF5DAF461007CF314
:102160004CF5020EDE2661007CF34DF5000EDD22FB
:10217000610030F5D9F4610034F5DAF4610078F3E8
:1021800070F5610074F371F56100C0F5D9F4610078
:10219000C4F5DAF4610048F7DFF4000E476E000E74
:1021A000466E3FEF16F0610020F5D9F4610024F58A
:1021B000DAF4610078F302F5610074F303F5910E2F
:1021C000046E160E056E000E076E020E066E31ECE2
:1021D00026F002500310D8A4F0EF10F0F2EF10F048
:1021E00026EF11F0020E610020F5D9F4610024F50C
:1021F000DAF4DE26000EDD22610028F5D9F4610054
:102200002CF5DAF461007CF34CF5020EDE26610059
:102210007CF34DF5000EDD22610030F5D9F461004C
:1022200034F5DAF4610078F370F5610074F371F558
:102230006100C0F5D9F46100C4F5DAF4610048F733
:10224000DEF461004CF7DDF4CDEF10F0610020F515
:10225000D9F4610024F5DAF4DEC4F6F4DDC4F7F451
:10226000F86A0800F5506E0AD8A439EF11F03BEF78
:1022700011F06EEF11F0610020F5D9F4610024F542
:10228000DAF4DE2A000EDD22610028F5D9F46100BF
:102290002CF5DAF461007CF34CF5020EDE266100C9
:1022A0007CF34DF5000EDD22610030F5D9F46100BC
:1022B00034F5DAF4610078F370F5610074F371F5C8
:1022C0006100C0F5D9F46100C4F5DAF4610048F7A3
:1022D000DEF461004CF7DDF4CDEF10F0610020F585
:1022E000D9F4610024F5DAF4610078F302F56100B5
:1022F00074F303F5A90E046E160E056E000E076E3C
:10230000020E066E31EC26F002500310D8A48BEFBB
:1023100011F08DEF11F0C1EF11F0020E610020F508
:10232000D9F4610024F5DAF4DE26000EDD22610026
:1023300028F5D9F461002CF5DAF461007CF34CF552
:10234000020EDE2661007CF34DF5000EDD226100F9
:1023500030F5D9F4610034F5DAF4610078F370F502
:10236000610074F371F56100C0F5D9F46100C4F542
:10237000DAF4610048F7DEF461004CF7DDF4CDEFEC
:1023800010F0610020F5D9F4610024F5DAF4DEC420
:10239000F6F4DDC4F7F4F86A0800F550700AD8A422
:1023A000D4EF11F0D6EF11F024EF12F0610020F518
:1023B000D9F4610024F5DAF4DE2A000EDD22610092
:1023C00028F5D9F461002CF5DAF461007CF34CF5C2
:1023D000020EDE2661007CF34DF5000EDD22610069
:1023E00030F5D9F4610034F5DAF4610078F34EF594
:1023F000610074F34FF54EC573F54FC574F50501D3
:10240000756B766B776B786B796B7A6B46C51FF55E
:1024100047C520F573C521F574C522F575C523F5AB
:1024200076C524F577C525F578C526F579C527F550
:102430007AC528F5780E296EDEEC1BF01FC546F52F
:1024400020C547F53FEF16F0610020F5D9F4610093
:1024500024F5DAF4DEC4F6F4DDC4F7F4F86A080013
:10246000F550730AD8A437EF12F039EF12F06EEF7F
:1024700012F0610020F5D9F4610024F5DAF4DE2AC7
:10248000000EDD22610028F5D9F461002CF5DAF4A4
:1024900061007CF34CF5020EDE2661007CF34DF505
:1024A000000EDD22610030F5D9F4610034F5DAF474
:1024B000610078F360F5610074F361F546C50DF5D0
:1024C00047C50EF560C50FF561C510F5F4EC22F0B7
:1024D0000DC546F50EC547F53FEF16F0610020F536
:1024E000D9F4610024F5DAF4610078F302F56100B3
:1024F00074F303F5980E046E160E056E000E076E4B
:10250000030E066E31EC26F002500310D8A48BEFB8
:1025100012F08DEF12F0D5EF12F0030E610020F5EE
:10252000D9F4610024F5DAF4DE26000EDD22610024
:1025300028F5D9F461002CF5DAF461007CF34CF550
:10254000020EDE2661007CF34DF5000EDD226100F7
:1025500030F5D9F4610034F5DAF4DF504E6E4E50A8
:102560000501736F746B756B766B776B786B796B3A
:102570007A6B46C51FF547C520F573C521F574C5AF
:1025800022F575C523F576C524F577C525F578C5FB
:1025900026F579C527F57AC528F588EC1EF01FC504
:1025A00046F520C547F53FEF16F0610020F5D9F458
:1025B000610024F5DAF4610078F302F5610074F348
:1025C00003F5990E046E160E056E000E076E020ED0
:1025D000066E31EC26F002500310D8A4F2EF12F090
:1025E000F4EF12F027EF13F0020E610020F5D9F49A
:1025F000610024F5DAF4DE26000EDD22610028F504
:10260000D9F461002CF5DAF461007CF34CF5020E8C
:10261000DE2661007CF34DF5000EDD22610030F511
:10262000D9F4610034F5DAF4610078F34EF5610015
:1026300074F34FF54EC573F54FC574F50501756B11
:10264000766B776B786B796B7A6BB9EF12F0610010
:1026500020F5D9F4610024F5DAF4DEC4F6F4DDC423
:10266000F7F4F86A0800F550750AD8A43AEF13F0A9
:102670003CEF13F06EEF13F0610020F5D9F4610028
:1026800024F5DAF4DE2A000EDD22610028F5D9F403
:1026900061002CF5DAF461007CF34CF5020EDE26C5
:1026A00061007CF34DF5000EDD22610030F5D9F4B8
:1026B000610034F5DAF4610078F34EF5610074F3EB
:1026C0004FF54EC573F54FC574F50501756B766B07
:1026D000776B786B796B7A6BB9EF12F0610020F54C
:1026E000D9F4610024F5DAF4610078F302F56100B1
:1026F00074F303F5AF0E046E160E056E000E076E32
:10270000020E066E31EC26F002500310D8A48BEFB7
:1027100013F08DEF13F0C0EF13F0020E610020F5FF
:10272000D9F4610024F5DAF4DE26000EDD22610022
:1027300028F5D9F461002CF5DAF461007CF34CF54E
:10274000020EDE2661007CF34DF5000EDD226100F5
:1027500030F5D9F4610034F5DAF4610078F34EF520
:10276000610074F34FF54EC573F54FC574F505015F
:10277000756B766B776B786B796B7A6BB9EF12F060
:10278000610020F5D9F4610024F5DAF4610078F3F2
:1027900002F5610074F303F59C0E046E160E056ECF
:1027A000000E076E030E066E31EC26F00250031089
:1027B000D8B4DDEF13F0DFEF13F0FEEF13F061009C
:1027C00020F5D9F4610024F5DAF4610078F302F51C
:1027D000610074F303F5840E046E160E056E000E90
:1027E000076E030E066E31EC26F002500310D8A4DB
:1027F000FCEF13F0FEEF13F063EF14F0610020F52F
:10280000D9F4610024F5DAF4610078F34CF5610045
:1028100074F34DF5020E4C26000E4D22610030F58A
:10282000F6F4610034F5F7F4F86A08006100D4F3B7
:1028300072F5030E610020F5D9F4610024F5DAF495
:10284000DE26000EDD22610028F5D9F461002CF5AA
:10285000DAF461007CF34CF5020EDE2661007CF3B5
:102860004DF5000EDD22610030F5D9F4610034F53C
:10287000DAF4DF504E6E4E500501736F746B756B5A
:10288000766B776B786B796B7A6B46C51FF547C5AE
:1028900020F573C521F574C522F575C523F576C5F8
:1028A00024F577C525F578C526F579C527F57AC5C8
:1028B00028F572C529F5DEEC1BF01FC546F520C5CD
:1028C00047F53FEF16F0610020F5D9F4610024F5DB
:1028D000DAF4610078F302F5610074F303F59D0EFC
:1028E000046E160E056E000E076E020E066E31ECBB
:1028F00026F002500310D8B480EF14F082EF14F0E9
:10290000A1EF14F0610020F5D9F4610024F5DAF4A8
:10291000610078F302F5610074F303F5850E046E2F
:10292000160E056E000E076E020E066E31EC26F0D6
:1029300002500310D8A49FEF14F0A1EF14F0EFEFB2
:1029400014F0610020F5D9F4610024F5DAF4610097
:1029500078F34CF5610074F34DF5010E4C26000E32
:102960004D22610030F5F6F4610034F5F7F4F86AB1
:1029700008006100D4F372F5020E610020F5D9F46D
:10298000610024F5DAF4DE26000EDD22610028F570
:10299000D9F461002CF5DAF461007CF34CF5020EF9
:1029A000DE2661007CF34DF5000EDD22610030F57E
:1029B000D9F4610034F5DAF4610078F34EF5610082
:1029C00074F34FF54EC573F54FC574F50501756B7E
:1029D000766B776B786B796B7A6B45EF14F06100EF
:1029E00020F5D9F4610024F5DAF4DEC4F6F4DDC490
:1029F000F7F4F86A0800F550780AD8B402EF15F039
:102A000004EF15F019EF15F0610020F5D9F461001D
:102A100024F5DAF4DEC4F6F4DDC4F7F4F86A08004D
:102A2000F550580AD8A417EF15F019EF15F05AEF22
:102A300015F0610020F5D9F4610024F5DAF4DEC464
:102A4000F6F4DDC4F7F4F86A08006100D4F372F517
:102A5000610020F5D9F4610024F5DAF4DE2A000ED5
:102A6000DD22610028F5D9F461002CF5DAF461006B
:102A70007CF34CF5020EDE2661007CF34DF5000E72
:102A8000DD22610030F5D9F4610034F5DAF461003B
:102A900078F34EF5610074F34FF54EC573F54FC5ED
:102AA00074F50501756B766B776B786B796B7A6B68
:102AB00045EF14F0610020F5D9F4610024F5DAF453
:102AC000610078F302F5610074F303F5B20E046E51
:102AD000160E056E000E076E020E066E31EC26F025
:102AE00002500310D8B477EF15F079EF15F098EF96
:102AF00015F0610020F5D9F4610024F5DAF46100E5
:102B000078F302F5610074F303F5A00E046E160E5F
:102B1000056E000E076E020E066E31EC26F00250B6
:102B20000310D8A496EF15F098EF15F0E6EF15F026
:102B3000610020F5D9F4610024F5DAF4610078F33E
:102B40004CF5610074F34DF5010E4C26000E4D223C
:102B5000610030F5F6F4610034F5F7F4F86A080026
:102B60006100D4F372F5020E610020F5D9F4610022
:102B700024F5DAF4DE26000EDD22610028F5D9F412
:102B800061002CF5DAF461007CF34CF5020EDE26D0
:102B900061007CF34DF5000EDD22610030F5D9F4C3
:102BA000610034F5DAF4610078F34EF5610074F3F6
:102BB0004FF54EC573F54FC574F50501756B766B12
:102BC000776B786B796B7A6B45EF14F0610020F5C9
:102BD000D9F4610024F5DAF4DEC4F6F4DDC4F7F4C8
:102BE000F86A0800F550250AD8A4F9EF15F0FBEFB4
:102BF00015F014EF16F0610020F5D9F4610024F50A
:102C0000DAF4DE2A000EDD22000E056E250E046EBB
:102C100046C506F547C507F5AFEC27F0000E476E31
:102C2000010E466E3FEF16F0610020F5D9F4610009
:102C300024F5DAF4DE2A000EDD22CDEF10F061007B
:102C400020F5D9F4610024F5DAF4DEC4F6F4DDC42D
:102C5000F7F4F86A0800F550046E056A46C506F5F3
:102C600047C507F5AFEC27F0610020F5D9F4610006
:102C700024F5DAF4DE2A000EDD220EEF16F0120043
:102C80002C50800B356E2C502C24376E2BAE4BEF16
:102C900016F04DEF16F04EEF16F037803750D8B4DF
:102CA00054EF16F056EF16F06BEF16F03728D8A455
:102CB0005CEF16F05EEF16F066EF16F0000E296E70
:102CC000000E2A6E000E2B6E000E2C6E2B8E000E48
:102CD0002C6E73EF16F0000E296E000E2A6E000E99
:102CE0002B6E000E2C6E3050800B366E3550361821
:102CF000D8B47DEF16F07FEF16F080EF16F0358C2C
:102D000030503024366E2FAE88EF16F08AEF16F072
:102D10008BEF16F036803650D8B491EF16F093EF63
:102D200016F0A8EF16F03628D8A499EF16F09BEF0E
:102D300016F0A3EF16F0000E2D6E000E2E6E000E94
:102D40002F6E000E306E2F8E000E306EB0EF16F02C
:102D5000000E2D6E000E2E6E000E2F6E000E306EC9
:102D60003750365CD8B0B7EF16F0B9EF16F0E0EF99
:102D700016F035ACBEEF16F0C0EF16F0C2EF16F04D
:102D8000800E351A37C538F536C537F538C536F5EE
:102D900029C538F52DC529F538C52DF52AC538F5CD
:102DA0002EC52AF538C52EF52BC538F52FC52BF5C0
:102DB00038C52FF52CC538F530C52CF538C530F59C
:102DC000000E386E375036C531F5326A315E000E6E
:102DD000325A32BEF5EF16F0325009E11A0E315C6C
:102DE000D8A0F5EF16F0F7EF16F02EEF17F02950F8
:102DF0002A102B102C10D8A400EF17F003EF17F0B7
:102E0000010E04EF17F0000E386E000E296E000E52
:102E10002A6E000E2B6E000E2C6E36C537F537EF7E
:102E200017F038A016EF17F018EF17F01EEF17F095
:102E3000D89038300109386E20EF17F0D89038322A
:102E400029A025EF17F027EF17F028EF17F0388E9D
:102E50002C342C322B322A322932372A3650375C26
:102E6000D8A035EF17F037EF17F011EF17F035BC9A
:102E70003CEF17F03EEF17F07EEF17F03750D8A475
:102E800044EF17F046EF17F050EF17F0000E296EE1
:102E9000000E2A6E000E2B6E000E2C6E9FEF18F0A7
:102EA0002D5029262E502A222F502B2230502C22F2
:102EB0002CA05DEF17F05FEF17F00BEF18F038A0C4
:102EC00064EF17F066EF17F06CEF17F0D89038301A
:102ED0000109386E6EEF17F0D890383229A073EFE1
:102EE00017F075EF17F076EF17F0388E2C342C3280
:102EF0002B322A322932372A0BEF18F02D50295C59
:102F00002E502A582F502B582C50800A316E30509A
:102F1000800A3158D8B08FEF17F091EF17F0BCEF5F
:102F200017F029502D5C316E2A502E58326E2B50DE
:102F30002F58336E2C503058346EFF0E3124296ECA
:102F4000FF0E32202A6EFF0E33202B6EFF0E342030
:102F50002C6E800E351A386C3850D8A4B2EF17F0AA
:102F6000B4EF17F0C4EF17F0010E2926000E2A2245
:102F70002B222C22C4EF17F02D50295E2E502A5AF6
:102F80002F502B5A30502C5A29502A102B102C100D
:102F9000D8A4CDEF17F0CFEF17F004EF18F03850AA
:102FA000D8A4D5EF17F0D7EF17F004EF18F0000E04
:102FB000296E000E2A6E000E2B6E000E2C6E9FEFF7
:102FC00018F0D89029362A362B362C3638AEEBEF4F
:102FD00017F0EDEF17F0EEEF17F0298038A0F3EFC0
:102FE00017F0F5EF17F0F9EF17F0D8803836FBEF50
:102FF00017F0D89038363750D8B401EF18F003EFF7
:1030000018F004EF18F037062BAE09EF18F00BEFAD
:1030100018F0E1EF17F0000E366E38AE12EF18F030
:1030200014EF18F02CEF18F038C531F57F0E31167B
:10303000D8B41DEF18F01FEF18F023EF18F0010EB1
:10304000366E2CEF18F029A028EF18F02AEF18F0B0
:103050002CEF18F01FEF18F03650D8B432EF18F0FC
:1030600034EF18F05FEF18F0010E2926000E2A2227
:103070002B222C222CA03FEF18F041EF18F05FEF2D
:1030800018F029C531F52AC532F52BC533F52CC505
:1030900034F53434343233323232313231C529F5F9
:1030A00032C52AF533C52BF534C52CF53728D8B4ED
:1030B0005CEF18F05EEF18F05FEF18F0372A372852
:1030C000D8B465EF18F067EF18F06FEF18F03750CD
:1030D000D8A46DEF18F06FEF18F081EF18F0000E24
:1030E000296E000E2A6E000E2B6E000E2C6E3750CD
:1030F000D8A47DEF18F07FEF18F081EF18F0000EE4
:10310000356E37A086EF18F088EF18F08BEF18F0C7
:103110002B8E8CEF18F02B9ED89037302C6E35AE5E
:1031200094EF18F096EF18F097EF18F02C8E29C551
:1031300029F52AC52AF52BC52BF52CC52CF512002F
:103140001350800B206E13501324276E12AEABEF7A
:1031500018F0ADEF18F0AEEF18F027802750D8B474
:10316000B4EF18F0B6EF18F0CBEF18F02728D8A47A
:10317000BCEF18F0BEEF18F0C6EF18F0000E106E9E
:10318000000E116E000E126E000E136E128E000EE7
:10319000136ED3EF18F0000E106E000E116E000EBD
:1031A000126E000E136E1750800B201A1750172442
:1031B000286E16AEDEEF18F0E0EF18F0E1EF18F031
:1031C00028802850D8B4E7EF18F0E9EF18F0FEEFA8
:1031D00018F02828D8A4EFEF18F0F1EF18F0F9EF65
:1031E00018F0000E146E000E156E000E166E000E16
:1031F000176E168E000E176E06EF19F0000E146E85
:10320000000E156E000E166E000E176E145015107F
:1032100016101710D8A40FEF19F011EF19F029EFBD
:1032200019F0000E106E000E116E000E126E000EE0
:10323000136E800E12127F0E13122050131210C53F
:1032400010F511C511F512C512F513C513F56CEF84
:103250001AF02750D8A42FEF19F031EF19F03BEFF7
:1032600019F0000E106E000E116E000E126E000EA0
:10327000136E6CEF1AF0285027C518F5196A185EFE
:10328000000E195A7F0E1824216E000E1920226E8E
:1032900010C51CF511C51DF512C51EF513C51FF58A
:1032A000000E106E000E116E000E126E000E136EE8
:1032B000000E236E000E246E000E256E000E266E8C
:1032C000000E286E9CEF19F02850D8B46AEF19F060
:1032D0006CEF19F083EF19F0D8901C361D361E36AE
:1032E0001F36D890103611361236133626AE7BEFC5
:1032F00019F07DEF19F07EEF19F01080D890233689
:1033000024362536263614501C5C15501D58165090
:103310001E5817501F58D8A090EF19F092EF19F0CF
:103320009BEF19F0268C14501C5E15501D5A165038
:103330001E5A17501F5A282A190E2864A2EF19F096
:10334000A4EF19F064EF19F01C501D101E101F108F
:10335000D8B4ADEF19F0AFEF19F0C7EF19F0238033
:10336000C7EF19F0D890103611361236133626AE44
:10337000BCEF19F0BEEF19F0BFEF19F01080D89034
:1033800023362436253626362106D8A0220612AE4C
:10339000CCEF19F0CEEF19F0B2EF19F0000E286E55
:1033A00026AED5EF19F0D7EF19F0FBEF19F0FF0EAD
:1033B0002314186EFF0E2414196EFF0E25141A6EB6
:1033C0007F0E26141B6E185019101A101B10D8B43B
:1033D000ECEF19F0EEEF19F0F2EF19F0010E286E94
:1033E000FBEF19F010A0F7EF19F0F9EF19F0FBEF70
:1033F00019F0EEEF19F02850D8B401EF1AF003EFEE
:103400001AF027EF1AF0010E1026000E11221222D8
:10341000132213A00EEF1AF010EF1AF027EF1AF094
:1034200010C518F511C519F512C51AF513C51BF508
:103430001B341B321A321932183218C510F519C54F
:1034400011F51AC512F51BC513F5214A222A22BE11
:1034500032EF1AF0225008E12128D8A032EF1AF0FA
:1034600034EF1AF03FEF1AF0000E226E2168000EC2
:10347000106E000E116E000E126E000E136E22BE44
:103480004CEF1AF0225006E12104D8B04AEF1AF0AE
:103490004CEF1AF05AEF1AF0000E226E000E216E59
:1034A000000E106E000E116E000E126E000E136EE6
:1034B000000E206E21C527F527A061EF1AF063EFFB
:1034C0001AF066EF1AF0128E67EF1AF0129ED8907B
:1034D0002730136E1DEF19F0120021C539F522C5F2
:1034E0003AF523C53BF524C53CF525C53DF526C574
:1034F0003EF527C53FF528C540F540BE82EF1AF0DE
:1035000085EF1AF0010E86EF1AF0000E376E386A5A
:1035100037503810D8B48FEF1AF091EF1AF0A1EFAE
:103520001AF0401E3F1E3E1E3D1E3C1E3B1E3A1E14
:10353000396C000E3A223B223C223D223E223F22A1
:1035400040220501D7BFA7EF1AF0A9EF1AF0AAEFA2
:103550001AF05D92D7BFB7EF1AF0D75106E1D60542
:10356000D8B0B5EF1AF0B7EF1AF0BDEF1AF0000EB1
:10357000346E010E336EC1EF1AF0D6C533F5D7C5E0
:1035800034F5D4C535F5D5C536F537503810D8A43F
:10359000CCEF1AF0CEEF1AF0D5EF1AF05DA4D3EF0E
:1035A0001AF0D5EF1AF0D8EF1AF03506D8A0360683
:1035B000000E426E1F0E416E000E06011F6F5DEF82
:1035C0001BF04106D8A04206000E4124D96E060E1B
:1035D0004220DA6E39C502F53AC503F53BC504F55C
:1035E0003CC505F53DC506F53EC507F53FC508F5E3
:1035F00040C509F50A0E0A6E000E0B6E000E0C6E29
:10360000000E0D6E000E0E6E000E0F6E000E106E90
:10361000000E116EB7EC23F002C529F503C52AF59B
:1036200004C52BF505C52CF506C52DF507C52EF5EA
:1036300008C52FF509C530F529C514F52BC515F5B5
:10364000A9EC2EF01450300FDF6E3306D8A03406EC
:103650003506D8A0360639C502F53AC503F53BC58F
:1036600004F53CC505F53DC506F53EC507F53FC566
:1036700008F540C509F50A0E0A6E000E0B6E000E25
:103680000C6E000E0D6E000E0E6E000E0F6E000E14
:10369000106E000E116E30EC22F002C539F503C534
:1036A0003AF504C53BF505C53CF506C53DF507C52E
:1036B0003EF508C53FF509C540F542BE68EF1BF071
:1036C000425008E14104D8A068EF1BF06AEF1BF0FC
:1036D0009AEF1BF039503A103B103C103D103E1051
:1036E0003F104010D8A477EF1BF079EF1BF0E1EF0B
:1036F0001AF034BE86EF1BF0345006E13304D8B024
:1037000084EF1BF086EF1BF0E1EF1AF036BE91EF6D
:103710001BF0365008E13504D8A091EF1BF093EF71
:103720001BF09AEF1BF05DB298EF1BF09AEF1BF0C5
:10373000E1EF1AF037503810D8A4A1EF1BF0A3EF37
:103740001BF0AAEF1BF05DA4A8EF1BF0AAEF1BF083
:10375000C9EF1BF04106D8A0420637503810D8A454
:10376000B4EF1BF0B6EF1BF0BCEF1BF0000E326E97
:103770002B0E316EC0EF1BF0000E326E2D0E316E2F
:10378000000E4124D96E060E4220DA6E6100C4F4A8
:10379000DFF41FC514F520C515F5000E4124166E83
:1037A000060E4220176E35C518F536C519F5EEEC34
:1037B00028F014C51FF515C520F512000501D7BF67
:1037C000E4EF1BF0E6EF1BF0E7EF1BF05D92D7BFD5
:1037D000F4EF1BF0D75106E1D605D8B0F2EF1BF09D
:1037E000F4EF1BF0FAEF1BF0000E376E010E366E91
:1037F000FEEF1BF0D6C536F5D7C537F5D4C538F57D
:10380000D5C539F55DA807EF1CF009EF1CF00DEFE9
:103810001CF0FE0E3826FF0E392221C53AF522C5CE
:103820003BF523C53CF524C53DF525C53EF526C52C
:103830003FF527C540F528C541F5000E436E1F0E24
:10384000426E000E06011F6FDAEF1CF04206D8A090
:1038500043060F0E3A14446E456A45BE39EF1CF01C
:10386000455009E10A0E445CD8A039EF1CF03BEF4B
:103870001CF043EF1CF0570E4424446E000E45200C
:10388000456E49EF1CF0300E4424446E000E452076
:10389000456EBF0E2A6EFF0E2B6E29502C6E2D6AC0
:1038A0002A502C262B502D222D500AE11A0E2C5C6A
:1038B000D8A05DEF1CF060EF1CF0010E61EF1CF072
:1038C000000E326E336A32503310D8B46AEF1CF0F7
:1038D0006CEF1CF09CEF1CF09F0E2A6EFF0E2B6EFF
:1038E000200E44102C6E000E45102D6E2A502C26F2
:1038F0002B502D222D500AE11A0E2C5CD8A083EFFC
:103900001CF086EF1CF0010E87EF1CF0000E346EE9
:10391000356A34503510D8B490EF1CF092EF1CF09B
:103920009CEF1CF044C508F545C509F515EC2DF0D4
:1039300008C544F509C545F5000E4224D96E060EAA
:103940004320DA6E610010F5DFF43606D8A03706A2
:103950003806D8A039063AC52AF53BC52BF53CC533
:103960002CF53DC52DF53EC52EF53FC52FF540C5BF
:1039700030F541C531F5050EC7EF1CF0D890313256
:1039800030322F322E322D322C322B322A32E82E88
:10399000BEEF1CF02AC53AF52BC53BF52CC53CF50E
:1039A0002DC53DF52EC53EF52FC53FF530C540F57B
:1039B00031C541F543BEE6EF1CF0435009E1020E6C
:1039C000425CD8A0E6EF1CF0E8EF1CF018EF1DF009
:1039D0003A503B103C103D103E103F10401041103B
:1039E000D8A4F5EF1CF0F7EF1CF026EF1CF037BE63
:1039F00004EF1DF0375006E13604D8B002EF1DF099
:103A000004EF1DF026EF1CF039BE0FEF1DF039500A
:103A100008E13804D8A00FEF1DF011EF1DF018EFEA
:103A20001DF05DB216EF1DF018EF1DF026EF1CF033
:103A30005DA81DEF1DF01FEF1DF036EF1DF04206D3
:103A4000D8A04306000E4224D96E060E4320DA6E3B
:103A50006100A4F4DFF44206D8A04306000E42241D
:103A6000D96E060E4320DA6E300EDF6E1FC514F5D8
:103A700020C515F5000E4224166E060E4320176E63
:103A800038C518F539C519F5EEEC28F014C51FF541
:103A900015C520F51200B2EC30F00AEC32F0E6EC7D
:103AA00031F0DA0E026E600E036ECDEC31F0240EB2
:103AB000026E610E036EC8EC31F0D68E210E050148
:103AC000976F760EE82EFED7972FFCD700F0270EC3
:103AD000066E160E076E83EC2AF0440E066E160E66
:103AE000076E83EC2AF0000E0501A76F010EA66F8A
:103AF000530EE82EFED700F0E4C5AAF5E5C5ABF5F8
:103B0000110E0501976F3A0EE82EFED7972FFCD7BE
:103B100000F00501AA51E41907E1AB51E519D8A459
:103B200094EF1DF096EF1DF06DEF1EF0000EE36FA9
:103B3000010EE26FA651AA1909E1A751AB19D8B439
:103B4000A4EF1DF0A6EF1DF06DEF1EF0AA51AB1112
:103B5000D8A4ADEF1DF0AFEF1DF0B5EF1DF0000ED6
:103B6000A96F010EA86FB9EF1DF0000EA96F000E2E
:103B7000A86F980E8D6F050E8E6F000E906F070E5A
:103B80008F6F5F0E916F160E926FA8C593F5A9C542
:103B900094F554EC2FF0980E066E050E076E83EC2C
:103BA0002AF0AAC5A6F5ABC5A7F569EC24F041C576
:103BB000ACF542C5ADF50501ADBFE1EF1DF0E3EF9A
:103BC0001DF005EF1EF0ADBFF1EF1DF0AD5107E1A7
:103BD0000A0EAC5DD8B0EFEF1DF0F1EF1DF005EF70
:103BE0001EF09F0E8D6F050E8E6F000E906F070EEC
:103BF0008F6F670E916F160E926FACC593F5ADC5C2
:103C000094F554EC2FF05DEF1EF0ADBF11EF1EF0F8
:103C1000AD5109E10A0EAC5DD8A011EF1EF013EF13
:103C20001EF035EF1EF0ADBF21EF1EF0AD5107E1E4
:103C3000640EAC5DD8B01FEF1EF021EF1EF035EF23
:103C40001EF09F0E8D6F050E8E6F000E906F070E8B
:103C50008F6F7D0E916F160E926FACC593F5ADC54B
:103C600094F554EC2FF05DEF1EF0640EAC19AD111D
:103C7000D8A43DEF1EF03FEF1EF04FEF1EF09F0E59
:103C80008D6F050E8E6F000E906F070E8F6F6F0E8B
:103C9000916F160E926F54EC2FF05DEF1EF09F0E99
:103CA0008D6F050E8E6F000E906F070E8F6F760E64
:103CB000916F160E926F54EC2FF00501A805A91113
:103CC000D8A465EF1EF067EF1EF06DEF1EF09F0E9B
:103CD000066E050E076E83EC2AF00501E205E3117E
:103CE000D8A475EF1EF077EF1EF078EF1DF0A65107
:103CF000A711D8A47EEF1EF080EF1EF082EF1EF019
:103D00000DEC32F0E9EC31F078EF1DF00DEF00F042
:103D10000501D7BF8EEF1EF090EF1EF091EF1EF061
:103D20005D92D7BF9EEF1EF0D75106E1D605D8B001
:103D30009CEF1EF09EEF1EF0A4EF1EF0000E326E00
:103D4000010E316EA8EF1EF0D6C531F5D7C532F59C
:103D5000D4C533F5D5C534F521C535F522C536F5BD
:103D600023C537F524C538F525C539F526C53AF5F7
:103D700027C53BF528C53CF5000E3E6E1F0E3D6E77
:103D8000000E06011F6F3BEF1FF03D06D8A03E0658
:103D9000000E3D24D96E060E3E20DA6E35C502F5C2
:103DA00036C503F537C504F538C505F539C506F53B
:103DB0003AC507F53BC508F53CC509F50A0E0A6E7C
:103DC000000E0B6E000E0C6E000E0D6E000E0E6ED1
:103DD000000E0F6E000E106E000E116E86EC28F0B5
:103DE00002C529F503C52AF504C52BF505C52CF533
:103DF00006C52DF507C52EF508C52FF509C530F503
:103E00002950300FDF6E3106D8A032063306D8A015
:103E1000340635C502F536C503F537C504F538C592
:103E200005F539C506F53AC507F53BC508F53CC5A6
:103E300009F50A0E0A6E000E0B6E000E0C6E000ED7
:103E40000D6E000E0E6E000E0F6E000E106E000E48
:103E5000116E37EC27F002C535F503C536F504C5FC
:103E600037F505C538F506C539F507C53AF508C56E
:103E70003BF509C53CF53D503E10D8B442EF1FF06C
:103E800044EF1FF074EF1FF0355036103710381024
:103E900039103A103B103C10D8A451EF1FF053EFEB
:103EA0001FF0C5EF1EF032BE60EF1FF0325006E18A
:103EB0003104D8B05EEF1FF060EF1FF0C5EF1EF0C9
:103EC00034BE6BEF1FF0345008E13304D8A06BEF21
:103ED0001FF06DEF1FF074EF1FF05DB272EF1FF077
:103EE00074EF1FF0C5EF1EF01FC514F520C515F5C2
:103EF000000E3D24166E060E3E20176E33C518F5D3
:103F000034C519F5EEEC28F014C51FF515C520F5DC
:103F100012000501D7BF8FEF1FF091EF1FF092EF56
:103F20001FF05D92D7BF9FEF1FF0D75106E1D60576
:103F3000D8B09DEF1FF09FEF1FF0A5EF1FF0000E10
:103F4000326E010E316EA9EF1FF0D6C531F5D7C51F
:103F500032F5D4C535F5D5C536F521C537F522C5B9
:103F600038F523C539F524C53AF525C53BF526C5F1
:103F70003CF527C53DF528C53EF5000E406E1F0EE9
:103F80003F6E000E06011F6F000E346E000E336E82
:103F90000FEF20F03F06D8A04006070E3714336E0F
:103FA000346A000E3F24D96E060E4020DA6E33507C
:103FB000300FDF6E3106D8A032063506D8A036069F
:103FC00037C529F538C52AF539C52BF53AC52CF57D
:103FD0003BC52DF53CC52EF53DC52FF53EC530F54D
:103FE000040EFCEF1FF0D89030322F322E322D32DB
:103FF0002C322B322A322932E82EF3EF1FF029C55A
:1040000037F52AC538F52BC539F52CC53AF52DC538
:104010003BF52EC53CF52FC53DF530C53EF540BE00
:104020001AEF20F0405008E13F04D8A01AEF20F02A
:104030001CEF20F04CEF20F03750381039103A10B8
:104040003B103C103D103E10D8A429EF20F02BEF80
:1040500020F0CAEF1FF032BE38EF20F0325006E1F8
:104060003104D8B036EF20F038EF20F0CAEF1FF05F
:1040700036BE43EF20F0365008E13504D8A043EFB8
:1040800020F045EF20F04CEF20F05DB24AEF20F039
:104090004CEF20F0CAEF1FF05DA851EF20F053EF76
:1040A00020F06AEF20F033503410D8B45AEF20F0EB
:1040B0005CEF20F06AEF20F03F06D8A04006000E2B
:1040C0003F24D96E060E4020DA6E300EDF6E3506C4
:1040D000D8A036061FC514F520C515F5000E3F24DF
:1040E000166E060E4020176E35C518F536C519F543
:1040F000EEEC28F014C51FF515C520F512000A6E68
:104100000A50D8B486EF20F088EF20F0AAEF20F014
:1041100005BE8FEF20F08DEF20F0AAEF20F002C552
:1041200006F503C507F504C508F505C509F5061E1E
:10413000071E081E091E062A000E07220822092251
:1041400006C50CF507C50DF508C50EF509C50FF533
:10415000B2EF20F002C50CF503C50DF504C50EF550
:1041600005C50FF50250031004100510D8A4BBEFCD
:1041700020F0BDEF20F0C7EF20F0000E026E000E21
:10418000036E000E046E000E056E58EF21F0960EC1
:104190000B6ED1EF20F00B2AD8900F320E320D3279
:1041A0000C32000E0C14066E000E0D14076E000E7D
:1041B0000E14086EFE0E0F14096E0650071008103C
:1041C0000910D8A4E6EF20F0E8EF20F0CBEF20F0C4
:1041D000F6EF20F00B2A010E0C26000E0D220E2207
:1041E0000F22D8900F320E320D320C32000E0C140A
:1041F000066E000E0D14076E000E0E14086EFF0EF4
:104200000F14096E0650071008100910D8A40BEF00
:1042100021F00DEF21F0EAEF20F015EF21F00B0671
:10422000D8900C360D360E360F360EBE1AEF21F032
:104230001CEF21F024EF21F0020E0B6022EF21F0A1
:1042400024EF21F00FEF21F00BB029EF21F02BEF3D
:1042500021F02CEF21F00E9ED8900B320BC506F505
:10426000076A086A096A06C509F5086A076A066ADC
:1042700006500C1207500D1208500E1209500F1262
:104280000A50D8B446EF21F048EF21F050EF21F06A
:1042900005BE4FEF21F04DEF21F050EF21F00F8ED2
:1042A0000CC502F50DC503F50EC504F50FC505F5E2
:1042B0001200000E176E000E166E000E106E000E2D
:1042C0000F6E65EF21F0094A0A2A010E156E610092
:1042D00024F4F6F4610028F4F7F4F86A0800F550C5
:1042E000200AD8B476EF21F078EF21F098EF21F092
:1042F000F70E0B6EFF0E0C6E610024F4F6F46100F5
:1043000028F4F7F4F86A0800F5500D6E0E6A0B50A9
:104310000D260C500E220E5009E1050E0D5CD8A0A2
:1043200094EF21F096EF21F098EF21F0000E156E3A
:1043300015C511F5126A11501210D8A4A2EF21F080
:10434000A4EF21F063EF21F0AEEF21F0000E106E2C
:10435000010E0F6E094A0A2AE9EF21F0610024F4E8
:10436000F6F4610028F4F7F4F86A0800F5500B6ED3
:104370000C6A0C50000AD8B4C0EF21F0E9EF21F02C
:104380000B502B0AD8B4AAEF21F0060AD8B4A6EF36
:1043900021F0E9EF21F016C502F517C503F5000E6F
:1043A000056E0A0E046E09EC30F0610024F4F6F498
:1043B000610028F4F7F4F86A0800F550025E000E78
:1043C000035A300E0224166E000E0320176EAAEF59
:1043D00021F0D00E0B6EFF0E0C6E610024F4F6F48B
:1043E000610028F4F7F4F86A0800F5500D6E0E6AC3
:1043F0000B500D260C500E220E500AE10A0E0D5CD9
:10440000D8A005EF22F008EF22F0010E09EF22F00C
:10441000000E136E146A13501410D8A412EF22F079
:1044200014EF22F0CBEF21F00F501010D8A41BEFA7
:1044300022F01DEF22F02BEF22F016C50BF517C569
:104440000CF50B1E0C1E0B4A0C2A0BC509F50CC5EE
:104450000AF52FEF22F016C509F517C50AF5120067
:10446000000E136E11BE39EF22F037EF22F04BEF42
:1044700022F0111E101E0F1E0E1E0D1E0C1E0B1EF6
:104480000A6C000E0B220C220D220E220F2210228B
:104490001122010E136E09BE52EF22F050EF22F0EE
:1044A00064EF22F0091E081E071E061E051E041ECC
:1044B000031E026C000E032204220522062207229C
:1044C00008220922010E131A21EE14F1070EDE6AEA
:1044D000E806FDE20A500B100C100D100E100F1024
:1044E00010101110D8B477EF22F079EF22F0CBEF53
:1044F00022F0010E126E87EF22F0D8900A360B36AA
:104500000C360D360E360F3610361136122A11AE15
:104510008CEF22F08EEF22F07DEF22F0D89014364F
:10452000153616361736183619361A361B360A500F
:10453000025C0B5003580C5004580D5005580E5097
:1045400006580F5007581050085811500958D8A055
:10455000ACEF22F0AEEF22F0BFEF22F00A50025E85
:104560000B50035A0C50045A0D50055A0E50065A5F
:104570000F50075A1050085A1150095A1480D890F9
:10458000113210320F320E320D320C320B320A322F
:10459000122E8EEF22F01350D8B4D1EF22F0D3EFC9
:1045A00022F0E3EF22F01B1E1A1E191E181E171E02
:1045B000161E151E146C000E152216221722182224
:1045C00019221A221B2214C502F515C503F516C5BA
:1045D00004F517C505F518C506F519C507F51AC57B
:1045E00008F51BC509F5120021EEDBF111EE12F101
:1045F000060EDBC4E3F4E806FCE20FC51DF510C5AA
:104600001EF51D501E10D8A408EF23F00AEF23F06A
:104610000EEF23F0120E1D6E050E1E6E1DC502F567
:104620001EC503F571EC2DF002C521F503C522F579
:10463000D6C51FF5D7C520F520BE21EF23F023EF07
:1046400023F038EF23F021501F5C2050800A116EB8
:104650002250800A1158D8A030EF23F032EF23F017
:1046600034EF23F038EF23F01FC521F520C522F5E4
:1046700021C51FF522C520F5D4C51BF5D5C51CF5F0
:104680005DB045EF23F047EF23F064EF23F055EFE3
:1046900023F0000E056E200E046E0DC506F50EC546
:1046A00007F5AFEC27F0214A222A1B50215C22504B
:1046B000800A116E1C50800A1158D8A062EF23F0B6
:1046C00064EF23F049EF23F0000E1A6E000E196E0E
:1046D0007FEF23F0610074F4D9F4610078F4DAF428
:1046E000DF50116E1150046E056A0DC506F50EC53A
:1046F00007F5AFEC27F01D4A1E2A194A1A2A1F5047
:10470000195C1A50800A116E2050800A1158D8A0E6
:104710008CEF23F08EEF23F06AEF23F05DA093EF90
:1047200023F095EF23F0B2EF23F0A3EF23F0000E78
:10473000056E200E046E0DC506F50EC507F5AFEC2F
:1047400027F0214A222A1B50215C2250800A116E38
:104750001C50800A1158D8A0B0EF23F0B2EF23F01C
:1047600097EF23F021C50DF522C50EF51200000EBE
:10477000136E09BEC0EF23F0BEEF23F0D2EF23F09B
:10478000091E081E071E061E051E041E031E026CBF
:10479000000E0322042205220622072208220922F3
:1047A000010E136E11BED9EF23F0D7EF23F0E9EF1E
:1047B00023F0111E101E0F1E0E1E0D1E0C1E0B1EB2
:1047C0000A6C000E0B220C220D220E220F22102248
:1047D00011220A500B100C100D100E100F1010109B
:1047E0001110D8B4F6EF23F0F8EF23F040EF24F0E7
:1047F000010E126E06EF24F0D8900A360B360C36F6
:104800000D360E360F3610361136122A11AE0BEF5A
:1048100024F00DEF24F0FCEF23F00A50025C0B5063
:1048200003580C5004580D5005580E5006580F50A0
:1048300007581050085811500958D8A022EF24F0FA
:1048400024EF24F034EF24F00A50025E0B50035A98
:104850000C50045A0D50055A0E50065A0F50075A64
:104860001050085A1150095AD890113210320F3294
:104870000E320D320C320B320A32122E0DEF24F0B2
:104880001350D8B446EF24F048EF24F058EF24F04A
:10489000091E081E071E061E051E041E031E026CAE
:1048A000000E0322042205220622072208220922E2
:1048B00002C502F503C503F504C504F505C505F5F4
:1048C00006C506F507C507F508C508F509C509F5C4
:1048D0001200000E516E000E506E000E4B6E000E58
:1048E0004A6E030E496EFAEF24F0040E176E50C59F
:1048F00018F551C519F5360E41EC2CF0040E176E63
:10490000360ECAEC2AF017C550F518C551F55050AF
:104910005110D8B48EEF24F090EF24F0EFEF24F094
:1049200050C543F551C544F544C543F5446A435069
:10493000026E036A046A056A000E7FEC20F002C56D
:104940004CF503C54DF504C54EF505C54FF54CC5F1
:1049500029F54DC52AF54EC52BF54FC52CF5000E92
:10496000146E000E156E800E166E430E176E5050AC
:10497000026E036A046A056A000E7FEC20F002C52D
:1049800010F503C511F504C512F505C513F5A0EC26
:1049900018F010C52DF511C52EF512C52FF513C54C
:1049A00030F540EC16F029C54CF52AC54DF52BC560
:1049B0004EF52CC54FF54CC539F54DC53AF54EC5EC
:1049C0003BF54FC53CF5EFEC29F039C547F53AC545
:1049D00048F547C541F548C542F513EF25F04906AE
:1049E000D8A04A06110E436E3A0EE82EFED7432E8B
:1049F000FCD700D04B50D8A400EF25F002EF25F0F3
:104A00000FEF25F04ABE0FEF25F04A5006E14904AA
:104A1000D8B00DEF25F00FEF25F075EF24F045C568
:104A200041F546C542F5120030EC31F00009D8B42A
:104A30001CEF25F01EEF25F058EF25F02BEF25F0A9
:104A400091EC31F0A4EF25F015EC32F0A4EF25F055
:104A5000000EA4EF25F0C0C50BF5C1C50CF502D8BA
:104A60003CEF25F00500FA6E0501B451FD6EB5511D
:104A7000FE6EFF6AFA5012000D6E0E6A0E50000AAA
:104A8000D8B445EF25F028EF25F00D50010AD8B431
:104A900028EF25F0030AD8B420EF25F0010AD8B496
:104AA00024EF25F0070AD8B428EF25F028EF25F0E9
:104AB00025EC31F00009D8B460EF25F062EF25F065
:104AC000A3EF25F00501D151030B0009D8B46BEF1A
:104AD00025F06DEF25F079EF25F0010E0D6ED15127
:104AE000030B0E6E0D500E5ED1510E18FC0B0E18FE
:104AF000D16F61002CF7D9F4610030F7DAF4DF50A0
:104B0000116ECB4BCC2BCD07D8A0CE07CD51CE11FB
:104B1000D8A48DEF25F08FEF25F097EF25F08EECE0
:104B20002BF00D6E0D500F6E106A9BEF25F0000EEE
:104B3000106E030E0F6E0FC512F51150AFEC31F071
:104B40001250A4EF25F0030E1200800E05017E5DC9
:104B5000D8A0ADEF25F0AFEF25F0B7EF25F0000EB0
:104B6000D96F4B0ED86F7B697C6930EF26F07BC51F
:104B700087F57CC588F57E5109E1020E7D5DD8A0E0
:104B8000C4EF25F0C6EF25F0D2EF25F0FF0E7D250E
:104B90008B6FFF0E7E218C6F000E8A6F000E896F67
:104BA000DAEF25F0000E8C6F010E8B6F000E8A6F0E
:104BB000010E896F870E506E050E516E7FC552F53E
:104BC00080C553F581C554F582C555F5ADEC2CF083
:104BD00050C585F551C586F505017D517E11D8B4C6
:104BE000F4EF25F0F6EF25F02CEF26F086BFFBEF73
:104BF00025F0FDEF25F02CEF26F0FF0E586EFF0E8E
:104C0000596E7DC55AF57EC55BF558505A265950E8
:104C10005B225A50855D8651800A5C6E5B50800A2B
:104C20005C58D8A016EF26F018EF26F020EF26F0FB
:104C3000FF0E7D25836FFF0E7E21846F24EF26F00B
:104C400085C583F586C584F583517B25D96E84514E
:104C50007C21DA6E000EDF6E85C57BF586C57CF59E
:104C6000120002C509F503C50AF504C50BF505C513
:104C70000CF50606D8A00706062806E10728D8A4E2
:104C800044EF26F046EF26F053EF26F0000E036EB9
:104C9000000E026EB3EF26F0094A0A2A0B4A0C2ACC
:104CA0000606D8A00706610024F4F6F4610028F493
:104CB000F7F4F86A0800F5500009D8B462EF26F05E
:104CC00064EF26F09AEF26F061002CF4F6F4610010
:104CD00030F4F7F4F86A0800F5500009D8B473EF1F
:104CE00026F075EF26F09AEF26F006500710D8B49C
:104CF0007CEF26F07EEF26F09AEF26F0610024F498
:104D0000F6F4610028F4F7F4F86A08006100D4F3BF
:104D100008F561002CF4F6F4610030F4F7F4F86A59
:104D20000800F5500818D8B498EF26F09AEF26F04E
:104D30004CEF26F0610024F4F6F4610028F4F7F457
:104D4000F86A08006100D4F308F561002CF4F6F469
:104D5000610030F4F7F4F86A0800F550085C026E60
:104D6000036AD8A003061200043405340B6E0B50FE
:104D7000D8A4BDEF26F0BFEF26F0C9EF26F0000E55
:104D8000026E000E036E000E046E000E056E36EF0E
:104D900027F002C506F503C507F504C508F505C5E6
:104DA00009F5200ED9EF26F0D890093208320732E3
:104DB0000632E82ED4EF26F006500A6E048EFF0E5F
:104DC0000216FF0E0316FF0E0416000E0516960EB1
:104DD0000B5E0BBEF0EF26F0EEEF26F006EF27F0AD
:104DE0000B50800A970FD8B0F8EF26F0FAEF26F0B4
:104DF000FCEF26F0BFEF26F0D890053204320332E4
:104E000002320B3EFCEF26F01EEF27F01F0E0B6464
:104E10000CEF27F00EEF27F016EF27F0BFEF26F08C
:104E2000D89002360336043605360B060B50D8A44C
:104E30001CEF27F01EEF27F010EF27F00A50D8B430
:104E400024EF27F026EF27F02EEF27F0051E041E93
:104E5000031E026C000E03220422052202C502F585
:104E600003C503F504C504F505C505F5120021EEDB
:104E700012F1070EDE6AE806FDE20A500B100C1074
:104E80000D100E100F1010101110D8B44AEF27F0AB
:104E90004CEF27F09EEF27F0010E1A6E5AEF27F025
:104EA000D8900A360B360C360D360E360F361036C5
:104EB00011361A2A11AE5FEF27F061EF27F050EF9D
:104EC00027F0D890123613361436153616361736A4
:104ED000183619360A50025C0B5003580C5004580F
:104EE0000D5005580E5006580F50075810500858CE
:104EF00011500958D8A07FEF27F081EF27F092EFEB
:104F000027F00A50025E0B50035A0C50045A0D5001
:104F1000055A0E50065A0F50075A1050085A115091
:104F2000095A1280D890113210320F320E320D32DF
:104F30000C320B320A321A2E61EF27F012C502F53D
:104F400013C503F514C504F515C505F516C506F515
:104F500017C507F518C508F519C509F5120006505B
:104F60000710D8B4B6EF27F0B8EF27F0C1EF27F05D
:104F700006500710D8A4BFEF27F0C1EF27F0C6EF07
:104F800027F00450AAEC31F01AEF28F020EE04F0DC
:104F90000650D9260750DA22DE50DE10D8B4D3EFFF
:104FA00027F0D5EF27F0F0EF27F020EE04F00650C1
:104FB000D9260750DA2210EE02F00650E1260750FB
:104FC000E222DE50E65CE650800A0C6EDE50800A7B
:104FD0000C58D8B0EEEF27F0F0EF27F01AEF28F0DA
:104FE00020EE02F00650D9260750DA22610078F34D
:104FF00008F5610074F309F5610018F4D9F4610053
:105000001CF4DAF4610078F30AF5610074F30BF52F
:1050100008500A24D96E09500B20DA6E610010F492
:10502000DFF420EE02F00650D9260750DA22DE2AFD
:10503000000EDD2212000501D451D511D8A423EFB2
:1050400028F025EF28F02BEF28F0D4C513F5D5C5AF
:1050500014F531EF28F0FF0ED425136EFF0ED52185
:10506000146E5DA036EF28F038EF28F041EF28F0FD
:105070000FC504F5056A0DC506F50EC507F5AFECBD
:1050800027F014BE46EF28F048EF28F04AEF28F04A
:105090004EEF28F0000E146E000E136E000E126E0E
:1050A000000E116E60EF28F0000E056E200E046EEB
:1050B0000DC506F50EC507F5AFEC27F0114A122A0B
:1050C0001350115C1250800A106E1450800A105850
:1050D000D8A06DEF28F06FEF28F054EF28F05DB006
:1050E00074EF28F076EF28F07FEF28F00FC504F575
:1050F000056A0DC506F50EC507F5AFEC27F0010EE4
:1051000011240D6E000E12200E6E12000A500B10AC
:105110000C100D100E100F1010101110D8B493EFCA
:1051200028F095EF28F0DDEF28F0010E126EA3EFC6
:1051300028F0D8900A360B360C360D360E360F3660
:1051400010361136122A11AEA8EF28F0AAEF28F077
:1051500099EF28F00A50025C0B5003580C50045889
:105160000D5005580E5006580F500758105008584B
:1051700011500958D8A0BFEF28F0C1EF28F0D1EFA7
:1051800028F00A50025E0B50035A0C50045A0D507E
:10519000055A0E50065A0F50075A1050085A11500F
:1051A000095AD890113210320F320E320D320C32B1
:1051B0000B320A32122EAAEF28F002C502F503C5FF
:1051C00003F504C504F505C505F506C506F507C5CF
:1051D00007F508C508F509C509F512005DA0F3EF4C
:1051E00028F0F5EF28F0FFEF28F016C50DF517C5EC
:1051F0000EF514C50FF515C510F587EC2EF019BE88
:1052000004EF29F006EF29F00CEF29F018C51DF581
:1052100019C51EF510EF29F0000E1E6E000E1D6E52
:10522000000E1C6E000E1B6E22EF29F0000E056EA4
:10523000200E046E14C506F515C507F5AFEC27F072
:105240001B4A1C2A1D501B5C1C50800A1A6E1E50E3
:10525000800A1A58D8A02FEF29F031EF29F016EF65
:1052600029F05DB036EF29F038EF29F042EF29F050
:1052700016C50DF517C50EF514C50FF515C510F5B6
:1052800087EC2EF016C502F517C503F571EC2DF06D
:105290001D500224146E1E500320156E12000501CD
:1052A000D18973EF29F0FBEC31F0080E9FEF29F064
:1052B000FBEC31F0070E9FEF29F00501CD2982ECC0
:1052C00031F0040E9FEF29F0070E0501CF19D8B475
:1052D0006CEF29F06EEF29F070EF29F0FEEC31F061
:1052E0000F0E9FEF29F0BAC50BF5BBC50CF502D820
:1052F00083EF29F00500FA6EAE51FD6EAF51FE6EE0
:10530000FF6AFA5012000D6E0E6A0E50000AD8B4F1
:105310008CEF29F064EF29F00D50010AD8B464EF46
:1053200029F0030AD8B458EF29F0010AD8B453EF92
:1053300029F0070AD8B45DEF29F064EF29F01200D4
:105340003BEC31F00009D8A4A8EF29F0AAEF29F02E
:10535000ADEF29F0040EEEEF29F00501D151030B5A
:105360000009D8B4B6EF29F0B8EF29F0C4EF29F05E
:10537000010E0F6ED151030B106E0F50105ED15104
:105380001018FC0B1018D16FCD07D8A0CE07CD5147
:10539000CE11D8B4CEEF29F0D0EF29F0DEEF29F00E
:1053A000F8EC31F061002CF7D9F4610030F7DAF451
:1053B000DF6E0501CB4BCC2BAAEF29F04FEC29F087
:1053C000116EF8EC31F061002CF7D9F4610030F780
:1053D000DAF4DF6E0501CB4BCC2B115012003CBE32
:1053E000F4EF29F0F6EF29F012EF2AF039C529F58C
:1053F0003AC52AF53BC52BF53CC52CF5000E2D6EA4
:10540000000E2E6E000E2F6E3F0E306E40EC16F02A
:1054100029C53DF52AC53EF52BC53FF52CC540F500
:105420002CEF2AF039C529F53AC52AF53BC52BF5ED
:105430003CC52CF5000E2D6E000E2E6E000E2F6E4C
:10544000BF0E306E40EC16F029C53DF52AC53EF57D
:105450002BC53FF52CC540F53DC502F53EC503F50E
:105460003FC504F540C505F5B4EC26F002C539F595
:1054700003C53AF51200026E010E036E0501D1B7A5
:1054800044EF2AF046EF2AF081EF2AF002C5CAF570
:10549000D195D187FC0ED1170F0ECF6F010EC96FBA
:1054A000F40EC86FD189320EAE6F640EAF6F000E6E
:1054B000BA6F000EBB6F320EB06F640EB16F000E8C
:1054C000BC6F000EBD6F320EB26F640EB36F000E74
:1054D000BE6F000EBF6F320EB46F640EB56F000E5C
:1054E000C06F000EC16F2E0EB66F640EB76F000E48
:1054F000C26F000EC36FE2EC31F01EEC30F0000E14
:10550000036E03501200000E0B6E000E0A6EAEEF1B
:105510002AF00201B0B98FEF2AF091EF2AF089EF5B
:105520002AF00A500624086E0B500720096E61000D
:1055300020F4F6F4610024F4F7F4000EF86E150E72
:10554000F76403D00800F55005D0F6C4E9F4F7C4B9
:10555000EAF4EF50EBEC30F00A4A0B2A06C502F5EC
:1055600007C503F571EC2DF002500A5C03500B588F
:10557000D8A0BDEF2AF0BFEF2AF089EF2AF00FEC98
:1055800031F00009D8B4C7EF2AF0C9EF2AF0BFEF15
:105590002AF012001C6E000E1E6E000E1D6E1C50B6
:1055A0003BEC2AF00009D8B4D8EF2AF0DAEF2AF061
:1055B000CFEF2AF0620E076E5F0E086E1D0E096EA9
:1055C000050E0A6E03EC31F0170E026E050E036E27
:1055D000000E056E010E046E80EC30F0000E076EBA
:1055E000000E086E000E096E000E0A6EF7EC30F029
:1055F000D2EC31F0F3EC2FF0E806D8B402EF2BF048
:1056000004EF2BF0FAEF2AF01EC519F51D501A6EA3
:105610001950176E1AC518F51200066E02500310C5
:10562000D8B415EF2BF017EF2BF035EF2BF0065019
:10563000020DAE0EF324D96E050EF420DA6E610071
:1056400008F4DEF461000CF4DDF40650020DBA0E2D
:10565000F324D96E050EF420DA6E610010F4DEF446
:10566000610014F4DDF44DEF2BF00650020DAE0E88
:10567000F324D96E050EF420DA6E320EDE6E640E5F
:10568000DD6E0650020DBA0EF324D96E050EF4201D
:10569000DA6E000EDE6E000EDD6E1200000EBE6EC3
:1056A000000EBF6E000EC06E3F0EC66E200EC76E9F
:1056B000C868FC0E0401106F800E086F330E006F77
:1056C000000E096F000E016F000E116F000E026FC9
:1056D000500E0A6F000E126F370E036FF00E0B6F35
:1056E00013693F0E046FF00E0C6F14690795068561
:1056F00005853C0E026E640E036ECDEC31F0A88E73
:105700000C0E0201706F210E0F6F100E106F220E23
:105710000D6F0D0E726F0E0E716F12000501D189A3
:10572000A3EF2BF0FBEC31F0070ECBEF2BF00501D4
:10573000CD2982EC31F0030ECBEF2BF0FEEC31F0F3
:105740000A0ECBEF2BF0BAC50BF5BBC50CF502D892
:10575000B3EF2BF00500FA6EAE51FD6EAF51FE6E49
:10576000FF6AFA5012000D6E0E6A0E50000AD8B48D
:10577000BCEF2BF09EEF2BF00D50010AD8B49EEF3A
:105780002BF0030AD8B492EF2BF0060AD8B497EFA7
:105790002BF09EEF2BF01200EDEC2DF00501D15116
:1057A000030B0009D8B4D7EF2BF0D9EF2BF0E6EFBD
:1057B0002BF030EC31F00009D8B4E1EF2BF0E3EF3F
:1057C0002BF0E6EF2BF0100E0501CF6F0501CF5146
:1057D000020D010EF324F66E160EF420F76EF86A31
:1057E000000EF82209006100D4F313F509006100EE
:1057F000D4F314F502D806EF2CF00500FA6E13501E
:10580000FD6E1450FE6EFF6AFA5012000501CF6F54
:105810001200E2EC31F0020E0501D06F1CEF2CF00B
:1058200091EC31F040EF2CF015EC32F040EF2CF021
:105830007AEC31F040EF2CF0BCC50BF5BDC50CF592
:1058400002D82CEF2CF00500FA6EB051FD6EB1516C
:10585000FE6EFF6AFA5012000D6E0E6A0E50000ABC
:10586000D8B435EF2CF018EF2CF00D50020AD8B454
:1058700010EF2CF0010AD8B414EF2CF018EF2CF034
:1058800012001A6E1A503BEC2AF00009D8B44BEF04
:105890002CF04DEF2CF042EF2CF0BA0E076E5F0E9D
:1058A000086E180E096E050E0A6E03EC31F0170E25
:1058B000026E050E036E000E056E010E046E80EC86
:1058C00030F0000E076E000E086E000E096E000E1E
:1058D0000A6EF7EC30F0D2EC31F0F3EC2FF0E80682
:1058E000D8B475EF2CF077EF2CF06DEF2CF01200A0
:1058F000000E0201A56F000EA66F000EA76F000E2E
:10590000A86F000EA96F000EAA6FA00EAB6F800EDD
:10591000AC6F000EAD6F190EAE6F000EAF6F000EC4
:10592000B06F000EB16F000EB26F000EB36F000EBD
:10593000026E000E036EBEEC31F0000E026E000E21
:10594000036EB9EC31F0000E026E000E036EC3EC74
:1059500031F0000E0501DA6F120052C556F553C53D
:1059600057F5000E0501D36F000ED26FCBEF2CF070
:1059700050C546F551C547F5560E486E050E496EA1
:1059800054C54AF555C54BF55BEC0BF04650050187
:10599000D2274750D323610058F5F6F461005CF537
:1059A000F7F4F86A0800F5500009D8A4DAEF2CF0F3
:1059B000DCEF2CF0B8EF2CF0D2C550F5D3C551F583
:1059C0001200FC0E0501D117020ED06FD195F0EF39
:1059D0002CF013EC32F014EF2DF00F0E14EF2DF02D
:1059E000BEC50BF5BFC50CF502D800EF2DF00500C4
:1059F000FA6EB251FD6EB351FE6EFF6AFA5012009C
:105A00000D6E0E6A0E50000AD8B409EF2DF0EDEFBE
:105A10002CF00D50020AD8B4E9EF2CF0010AD8B4EA
:105A2000E9EF2CF0EDEF2CF012009F0E0A6EFF0E46
:105A30000B6E08C50CF509C50DF50A500C260B5068
:105A40000D220D500AE11A0E0C5CD8A02AEF2DF0A1
:105A50002DEF2DF0010E2EEF2DF0000E0E6E0F6AC1
:105A60000E500F10D8B437EF2DF039EF2DF03FEF77
:105A70002DF05F0E0814086E096A43EF2DF008C57B
:105A800008F509C509F51200BAA249EF2DF04BEF50
:105A90002DF04DEF2DF070EF2DF0BAA052EF2DF05C
:105AA00054EF2DF056EF2DF070EF2DF002019AA576
:105AB0005CEF2DF05EEF2DF060EF2DF070EF2DF02C
:105AC0009AAF65EF2DF067EF2DF069EF2DF070EFD5
:105AD0002DF097A96EEF2DF070EF2DF044EF2DF023
:105AE000120002C504F503C505F579EF2DF0024A51
:105AF000032A610008F4F6F461000CF4F7F4000ED8
:105B0000F86E150EF76403D00800F55005D0F6C402
:105B1000E9F4F7C4EAF4EF500009D8A492EF2DF0AD
:105B200094EF2DF077EF2DF00450025C026E0550DB
:105B30000358036E1200010E086E200E02180310A7
:105B4000D8B4A5EF2DF0A7EF2DF0C0EF2DF0F70E94
:105B5000046EFF0E056E02C506F503C507F5045079
:105B6000062605500722075009E1050E065CD8A05D
:105B7000BCEF2DF0BEEF2DF0C0EF2DF0000E086E43
:105B800008C502F5036A1200156E010E166E0501B6
:105B9000D1B5CDEF2DF0CFEF2DF0EBEF2DF0D1857E
:105BA000000E166ECD5182EC31F01550D8B4DBEFFB
:105BB0002DF0DDEF2DF0E4EF2DF0040E0501CF6F99
:105BC00084EC2FF0E9EF2DF0030E0501CF6F1AECF6
:105BD00031F0A3EC30F0165012005CEC31F000090B
:105BE000D8B4F5EF2DF0F7EF2DF0FBEF2DF007EC2B
:105BF00032F015EF2EF046EC31F00009D8B403EF87
:105C00002EF005EF2EF009EF2EF001EC32F015EF3B
:105C10002EF051EC31F00009D8B411EF2EF013EF53
:105C20002EF015EF2EF004EC32F01200480EF66E56
:105C3000630EF76E000EF86E01EEDBF110EE0BF066
:105C40000900F5C4EEF4E550E150FAE101EE00F28E
:105C5000200EEE6AE806FDE101EEAEF12D0EEE6AD1
:105C6000E806FDE15E6A5D6A0401080E5D6F000EE4
:105C70005E6F000E5F6F00014BEF1DF020EE02F033
:105C80000B50D9260C50DA22610078F302F561003E
:105C900074F303F561002CF4D9F4610030F4DAF404
:105CA000610078F304F5610074F305F580EC30F0E1
:105CB000000E076E000E086E000E096E000E0A6ED2
:105CC00003EC31F0020E1200ABAE69EF2EF06BEF79
:105CD0002EF076EF2EF0B6AE70EF2EF072EF2EF0C3
:105CE00076EF2EF06CEC2FF086EF2EF0A8AE7BEF67
:105CF0002EF07DEF2EF086EF2EF0B3AE82EF2EF079
:105D000084EF2EF086EF2EF067EC31F01100000EDC
:105D1000136E000E126E98EF2EF011C504F5056A91
:105D20000FC506F510C507F5AFEC27F0124A132A88
:105D300012500D24D96E13500E20DA6EDF50116E02
:105D40001150D8A4A6EF2EF0A8EF2EF08DEF2EF074
:105D5000120015BEB6EF2EF0155006E11404D8B0AF
:105D6000B4EF2EF0B6EF2EF0C4EF2EF014C516F5FA
:105D700015C517F5161E171E164A172A16C514F54F
:105D800017C515F5C8EF2EF014C514F515C515F592
:105D900012009F0E046EFF0E056E200E0210066E9E
:105DA000000E0310076E0450062605500722075008
:105DB0000AE11A0E065CD8A0E0EF2EF0E3EF2EF019
:105DC000010EE4EF2EF0000E026E036A12009F0E29
:105DD000046EFF0E056E02C506F503C507F50450F7
:105DE00006260550072207500AE11A0E065CD8A0C5
:105DF000FCEF2EF0FFEF2EF0010E00EF2FF0000E63
:105E0000026E036A1200BF0E046EFF0E056E02C51D
:105E100006F503C507F5045006260550072207506E
:105E20000AE11A0E065CD8A018EF2FF01BEF2FF036
:105E3000010E1CEF2FF0000E026E036A1200D00E4E
:105E4000046EFF0E056E02C506F503C507F5045086
:105E500006260550072207500AE10A0E065CD8A064
:105E600034EF2FF037EF2FF0010E38EF2FF0000E48
:105E7000026E036A12000501E851E911D8B443EF3C
:105E80002FF045EF2FF051EF2FF002D851EF2FF008
:105E90000500FA6EE851FD6EE951FE6EFF6AFA5098
:105EA0001200040107951200930E0501956F050E6F
:105EB000966F8DC57BF58EC57CF58FC57DF590C53C
:105EC0007EF591C57FF592C580F5950E816F050E23
:105ED000826FA5EC25F01200B69E0501E651E71190
:105EE000D8B475EF2FF077EF2FF083EF2FF002D8B3
:105EF00083EF2FF00500FA6EE651FD6EE751FE6E5E
:105F0000FF6AFA50120012000501D151FC0B020980
:105F1000D16FCD05CE11D8A490EF2FF092EF2FF0D6
:105F200094EF2FF04FEC29F0D8800501CA35AFEC83
:105F300031F0040E12000BC502F50CC503F5000E7E
:105F4000056E010E046E80EC30F0000E076E000E40
:105F5000086E000E096E000E0A6E03EC31F0040E9E
:105F600012000BC502F50CC503F5000E056E020EFE
:105F7000046E80EC30F0000E076E000E086E000E0E
:105F8000096E000E0A6E03EC31F0020E12000BC512
:105F900002F50CC503F5000E056E010E046E80ECD3
:105FA00030F0000E076E000E086E000E096E000E37
:105FB0000A6E03EC31F0020E12000BC502F50CC59F
:105FC00003F5000E056E020E046E80EC30F0000E3C
:105FD000076E000E086E000E096E000E0A6E03ECCE
:105FE00031F0040E1200010E026E0501D1B5FBEF77
:105FF0002FF0FDEF2FF007EF30F0D197CA69E2ECF8
:1060000031F0C1EC30F09EEC31F0D0C502F5025019
:106010001200025004026100CCF306F56100D0F3D7
:1060200007F502500502F350072603500402F3500F
:10603000072606C502F507C503F51200020194BF45
:1060400024EF30F026EF30F031EF30F0000E9A6F91
:10605000000E9B6F000E976F000E8C6F000E8D6F01
:10606000948F1200EFEC31F0ECEC31F00009D8B471
:106070003CEF30F03EEF30F044EF30F0000E82ECB9
:1060800031F0000EAFEC31F0000E1200040E0201F0
:10609000946F800E956F180E966F020E9E6F000E15
:1060A0009A6F000E9B6F000E976F000E8C6F000EA4
:1060B0008D6F12007E0E03011B6F3C0E196F000ED8
:1060C000186FB69EAB8E3A0E026E640E036EC8EC6D
:1060D00031F0800E03011A6F1200CEB472EF30F06F
:1060E00076EF30F0016A012A77EF30F0016A015053
:1060F0000501E46FE56B000EE36F000EE26F120026
:106100000501D1A986EF30F088EF30F091EF30F043
:1061100002C5CBF503C5CCF504C5CDF505C5CEF557
:10612000D199120010EC32F0CEB499EF30F09DEF1F
:1061300030F0016A012A9EEF30F0016A015005013A
:10614000E46FE56B1200A9EF30F044EC2DF0CCECDD
:106150002BF00501D1B5AFEF30F0B1EF30F0A5EF86
:1061600030F012001BEC32F0CFEC30F046EC30F0A7
:106170004EEC2BF0DDEC30F05AEC30F078EC2CF0FB
:106180001200AF94AF96AF90AF9202019B919B9596
:106190009B9F9B9D9B939793979597911200000EC1
:1061A0000001636F000E646F000E656F000E666F76
:1061B000000E676F000E686F1200600E0001AD6F79
:1061C000000EAF6F000EB36F000EB16F000EB06F18
:1061D000000EAC6F1200026EB7A2F1EF30F0F3EFD9
:1061E00030F0ECEF30F0610008F4A3F2120007C5C4
:1061F00002F508C503F509C504F50AC505F5020E43
:106200000DEC2BF0120007C502F508C503F509C512
:1062100004F50AC505F5000E0DEC2BF01200020185
:10622000B2BF15EF31F018EF31F0010E19EF31F078
:10623000000E12000501D151FC0B0209D16FCA51A9
:10624000CA25AFEC31F0030E1200020199BB2BEF0F
:1062500031F02EEF31F0010E2FEF31F0000E120071
:10626000020195BB36EF31F039EF31F0010E3AEF14
:1062700031F0000E1200020199B141EF31F044EF0C
:1062800031F0010E45EF31F0000E120002019AB517
:106290004CEF31F04FEF31F0010E50EF31F0000EC6
:1062A0001200020197B957EF31F05AEF31F0010EA9
:1062B0005BEF31F0000E120002019ABF62EF31F085
:1062C00065EF31F0010E66EF31F0000E12000401AF
:1062D00007A56DEF31F06FEF31F071EF31F03BEC6E
:1062E0002FF01200B4EC31F00501D195020ED06F01
:1062F0000F0E1200B4EC31F00501D195000ED06FF5
:106300000F0E1200026E610008F48CF2000E020102
:106310008D6F1200F2EC31F0EFEC31F098EC31F0CF
:1063200012000501CD5182EC31F084EC2FF0120007
:106330000501D195000ED06F0F0E12000201949F3F
:10634000000E9A6F99851200286E756C6C290001F9
:0363500000010049
:10635400036E0350EBEC30F01200026E610008F49F
:106364008BF212000201949F9985948F120002C54A
:10637400ECF503C5EDF5120002C5EEF503C5EFF526
:10638400120002C5EAF503C5EBF5120002C5E6F5F5
:1063940003C5E7F5120002C5E8F503C5E9F51200E7
:1063A400000EC4EC2DF01200F2EC31F0090E1200D4
:1063B400F5EC31F0040E1200F5EC31F0030E12008E
:1063C400000E02019A6F1200F29EF29C120003006A
:1063D40000F0120002018C5112000201949B120081
:1063E4000201958D12000201959D120002018A514D
:1063F40012000201948D12000201949D1200020108
:106404009A95120002019799120002019A9F1200B4
:1064140003011A9F120003011A8F120003011A9F2D
:106424001200010E1200020E1200050E1200010EDF
:0A6434001200D69A120012001200A6
:020000040020DA
:10000000FF0FFF0FFF0FFF0FFF0FFF0FFF0FFF0F80
:10001000FF0FFF0FFF0FFF0FFF0FFF0FFF0FFF0F70
:020000040030CA
:0A0000008CFFF7FF9FFFFFFFFFFFDB
:00000001FF
